:020000040000FA
:10000000E004002055010000DB030000FB020000BB
:10001000D90300001302000089080000000000005E
:1000200000000000000000000000000011040000BB
:100030003902000000000000DD030000130400008E
:100040006F0100006F0100006F0100006F010000F0
:100050006F0100006F0100006F0100006F010000E0
:100060006F0100006F0100006F0100006F010000D0
:100070006F0100006F0100006F0100006F010000C0
:100080006F0100006F0100006F0100006F010000B0
:100090006F0100006F0100006F0100006F010000A0
:1000A0006F0100006F010000000000006F01000000
:1000B0006F0100006F0100006F0100006F01000080
:1000C0006F0100006F0100006F0100006F01000070
:1000D0006F010000000000000000000000000000B0
:1000E00000000000110200006F0100006F0100001D
:1000F0006F0100006F0100006F0100006F01000040
:100100006F0100006F0100006F0100006F0100002F
:100110006F0100007D080000000000006F0100007A
:100120006F0100006F0100006F0100006F0100000F
:100130006F0100006F0100006F010000000000006F
:1001400000000000000000000000000000000000AF
:100150006F0100000648804706480047FEE7FEE7BB
:10016000FEE7FEE7FEE7FEE7FEE7FEE7FEE7FEE767
:100170001504000079010000DFF80CD000F006F84B
:1001800000480047C10A0000E0040020064C074D6B
:1001900006E0E06840F0010394E807009847103457
:1001A000AC42F6D3FFF7ECFF3C0C00005C0C000007
:1001B0002DE9F0479146154A4FF0FF0A02EBC005C2
:1001C000002200240AFA02F02346084217D0002039
:1001D000012797404FF00F0C21FA00F63E4207D05E
:1001E00086000CFA06F809FA06F648EA04043343D6
:1001F000401C0828F0D32868A04318432860083220
:100200002D1D082ADDDDBDE8F0870000202002401A
:100210007047FEE7F0B5074F7C6AFD6A3E6B84438A
:100220008D43964313B104430D4316437C62FD6234
:100230003E63F0BD0080084070470029016902D08C
:1002400041F0010101E021F0010101617047F0B5C9
:100250000B78076D00EB830404F1400204F1900574
:1002600004F1A0065B0001249C40E443274007659D
:10027000476D27404765446D4F799F403C43446537
:10028000146840F20717BC43146014684F883C435D
:100290001460CA882A600A893260026D097999401F
:1002A0000A430265F0BD0021017041800171417176
:1002B000C18001817047C0F8881070470A88C0F873
:1002C00088204A88C0F88420026822F44032026004
:1002D000026822F08072026002684B681A43026072
:1002E00009898167704700214FF6FF7241600280E3
:1002F00041804FF4807101817047FEE70029016F52
:1003000002D041F0100101E021F0100101677047B7
:100310000029016902D041F0010101E021F0010151
:1003200001617047F0B50B78076D00EB830404F1B1
:10033000400204F1900504F1A0065B0003249C40F8
:10034000E44327400765476D91F806C091F807E040
:1003500027404CEA4E0C0CFA03FC4CEA070CC0F8A0
:1003600054C0C76E91F809C027400C7A44EA4C0487
:100370009C403C43C466146840F20717BC431460B9
:1003800014684F883C4314604A892A608A89326025
:100390000A79497942EA4101026D994011430165A8
:1003A000F0BDC0F8881070470A88C0F888204A88D5
:1003B000C0F88420026822F440320260026822F011
:1003C0008072026002688B681A4302600A79C0F882
:1003D0008C20898981677047FEE77047704700006D
:1003E000F0B50A4FD7F80441D7F80851D7F80C6197
:1003F00084438D43964313B104430D431643C7F81A
:100400000441C7F80851C7F80C61F0BD00800840EE
:100410007047704714480121C0F80013134AC2F80E
:10042000A810D2F80831002BFBD0002313624FF044
:1004300010638361C2F8A410D2F80431002BFBD002
:100440000B4AD2F8003223F00703DB1CC2F800325B
:100450000162426822F00302521C4260426BB1EB1F
:10046000927FFBD1704700000080084000001043DD
:10047000000008402DE9F041044600F0D5F905469A
:10048000800706D5E16C09B1206D8847022000F095
:10049000CBF8E8060FD5102000F0C6F894F832002B
:1004A000022808D300F0C8F994F8320084F8330029
:1004B000032084F8320068074FF0000620D5701E34
:1004C000D4F8847044F8200F26746674207D20F0E0
:1004D000020020750420A074A66100F0ABF800F0C3
:1004E000B3F90020616E00F003F9386800F084F978
:1004F000616A203C09B1A06C8847042000F094F8A0
:10050000280708D500F0A0F994F8330084F83200E9
:10051000082000F089F8E8054FF480777AD50020AC
:1005200000F0D6F80546800522D5204600F094F963
:1005300084F824602662207810F0600002D0202821
:1005400008D103E0204600F0DCF903E0216E2046EC
:1005500001B1884794F82400012817D002281ED042
:10056000002000F015F94FF40071002000F078F839
:10057000A8072ED50221002000F072F8206A401C46
:1005800027D094F8240002280FD022E0E088216AC6
:10059000814200DD2062204600F077F9E3E7002287
:1005A0001146104600F004F9DDE740220020E16921
:1005B00000F0CEF8E1690144E161216A081A206285
:1005C00007D1012084F82400A16A11B1E06A8847AC
:1005D000A662E80606D5204600F057F91021002053
:1005E00000F03EF8384600F01FF813E0284600F00F
:1005F0006FF810F0120F0DD01221284600F030F8DD
:1006000007FA05F000F010F804EB8500416E09B11F
:100610002846884700F008F900F0F6F80546401C27
:10062000E4D1BDE8F0810000014988607047000016
:1006300000800A400021202001230A46FFF7D0BE97
:1006400010B500F01BFA016801F00901016010BD4E
:1006500010B500F013FA016801F02401016010BD2B
:1006600010B50C4600F00AFA846010BD10B500F019
:1006700005FA00690249C0F30900084410BD0000F2
:1006800000A00A4070B5054600F0F8F90446284677
:1006900000F00AF82169C1F309010844014908443E
:1006A00070BD000000A00A4010B500F0E7F9006935
:1006B000C0F3892010BD10B500F0E0F901690068B1
:1006C000C90002D5C0F3800010BDC0F3401010BDBA
:1006D00010B500F0D3F941688068084010BD10B52E
:1006E0000C4600F0CBF9C068E040C0F3080010BD34
:1006F00070B50C46054600F0C1F904EBC5014A6827
:100700000261896841604FF0FF3181602846BDE891
:10071000704000F035B82DE9F04116460F4605004F
:1007200011D00021FFF7DBFF0446B04208D828466D
:100730005DB1FFF79BFFE11C8A08394600F095F98F
:100740002046BDE8F0811021ECE7FFF79BFFF2E7C0
:100750002DE9F04115460E46074600F08FF9044694
:1007600000203DB12A4631463846FFF7D4FF08B98C
:10077000002D03D1216801F010012160BDE8F08156
:1007800010B500F07BF9016801F01901016010BD9E
:1007900010B500F073F90421016010BD10B500F030
:1007A0006DF940218160026824219143016010BDF0
:1007B0002DE9F041144688460746FFF775FF0646C7
:1007C000384600F05BF9054600213846FFF787FF01
:1007D000B44200D810B10020BDE8F0813846FFF7E0
:1007E00045FF0146E01C8208404600F03EF9EC60FF
:1007F000022028602046EFE702494A6802434A6027
:100800007047000000800A400346072101F10802FA
:1008100023FA02F0C20701D048B27047491E0029EE
:10082000F4DC4FF0FF3070470248416880680840B0
:100830007047000000800A400248016841F00C0146
:100840000160704700800A400248016801F480613D
:100850000160704700800A4002490A6802604968E6
:100860004160704700A00A4003490A6842F4807260
:100870000A6008617047000000800A400148FFF7E5
:10088000F9BD000008020020FEE770B50446002014
:10089000FFF70AFF0546206A411C16D094F8241081
:1008A000012912D1A84202D3401B206205E005466F
:1008B00000202062022084F824002A460020E169FA
:1008C000FFF776FFE0692844E06170BD10B504468B
:1008D0000020607649B1012909D0022910D1207980
:1008E00000F00F00FFF7E7FE01E094F834002076F7
:1008F00004F11800E06102202062012084F8240045
:1009000010BD70B5044600880125B0F5A06F4DD02C
:1009100020DCB0F5807F42D00BDC80283BD08128E2
:100920003BD0822864D102212046BDE87040FFF709
:10093000CDBFB0F5817F34D0B0F5407F33D0A0F586
:100940004070023854D1012202212046BDE8704097
:1009500000F065B8B0F5106F4DD00FDCB0F5D06F7A
:100960002BD0A0F5C060813843D0A0F58070FF384F
:100970003ED104F13000C4E9070537E0A0F520605E
:1009800081384AD0802833D1A16D002930D020464B
:10099000BDE8704008470021C6E70121C4E70022F6
:1009A00002E00022D0E701220021CEE7A078FFF785
:1009B0005BFF84F8245005202CE0E07801280FD05C
:1009C00002280FD0032813D1A078616981420FD982
:1009D000216951F8200000280AD0E061007804E085
:1009E000A068FAE7E068E0614088206284F824505B
:1009F00070BD616DC9E7A07884F8300084F8245098
:100A0000012568B2D4F88410FFF772FE6D1C082D22
:100A1000F7D3062084F8320070BDE16DB5E770B5FC
:100A20000446012661B1022909D1207910F00F0591
:100A300003D082B12846FFF7B1FE84F8246070BD70
:100A4000A0780128FBD114F8340F62F3410004F8B8
:100A50001009267070BDA06B0028EED12846FFF764
:100A6000F7FD2846FFF7ECFDE7E7521E04D450F8E7
:100A7000223041F82230F8E770470000024900EBCD
:100A8000800001EB8000704714800A4002E008C833
:100A9000121F08C1002AFAD170477047002001E0F8
:100AA00001C1121F002AFBD1704700214CF25032C5
:100AB0000020401C9042FCD3491C0C29F8D37047FD
:100AC00000F024F800F070F80D4FDFF8388043F69E
:100AD00097250D4C4FF6FF16FFF7E7FF20686438A7
:100AE00081B220603846FFF75CFC208881B2404626
:100AF000FFF7E1FB2068A842EED22660ECE7000099
:100B000000D0024000E006400000002070B5002444
:100B1000022288B0510301232046FFF77BFB042209
:100B20000C211046FFF744FB1D4E1E4D04A93088D2
:100B3000ADF810004FF48070ADF81C00ADF8124015
:100B40008DF8144006942846FFF72EFC01208DF8FE
:100B500004008DF805408DF8000007218DF806404F
:100B60008DF80840ADF802108DF807408DF80900A7
:100B700030683221401C48436421B0FBF1F0ADF8ED
:100B80000A0069462846FFF7CDFB01212846FFF7FA
:100B9000B5FB01212846FFF7BBFB08B070BD000084
:100BA0000000002000D0024070B54FF4803086B0C5
:100BB0000025811002120123FFF72CFB04220221E1
:100BC0000020FFF7F5FA1B4800684FF4FA61B0FB0C
:100BD000F1F403A8641EFFF786FB45F6BF50ADF89D
:100BE0000C00154E0495ADF80E50ADF8145003A945
:100BF0003046FFF763FB6846FFF755FB01208DF891
:100C0000000006218DF80400ADF80210641C04EB0E
:100C100044106421B0FBF1F08DF80550ADF80600EA
:100C200069463046FFF713FB01213046FFF705FB0D
:100C300006B070BD0400002000E006405C0C00001F
:100C400000000020080000008C0A0000640C000076
:100C500008000020D80400009C0A0000BF5D0000CE
:040C600000A24A04A0
:0400000500000155A1
:00000001FF
