:020000040000FA
:100000006802002055010000290400009D03000043
:100010002504000021030000DD04000000000000B2
:100020000000000000000000000000002D0400009F
:1000300059030000000000002B0400006D010000C7
:100040006F0100006F0100006F0100006F010000F0
:100050006F0100006F0100006F0100006F010000E0
:100060006F0100006F0100006F0100006F010000D0
:100070006F0100006F0100006F0100006F010000C0
:100080006F0100006F0100006F0100006F010000B0
:100090006F0100006F0100006F0100006F010000A0
:1000A0006F0100006F010000000000006F01000000
:1000B0006F0100006F0100006F0100006F01000080
:1000C0006F0100006F0100006F0100006F01000070
:1000D0006F010000000000000000000000000000B0
:1000E000000000006F0100006F0100006F010000C0
:1000F0006F0100006F0100006F0100006F01000040
:100100006F0100006F0100006F0100006F0100002F
:100110006F0100006F010000000000006F0100008F
:100120006F0100006F0100006F0100006F0100000F
:100130006F0100006F0100006F010000000000006F
:1001400000000000000000000000000000000000AF
:100150006F0100000948804709480047FEE7FEE7B5
:10016000FEE7FEE7FEE7FEE7FEE7FEE7FEE7FEE767
:1001700004480549034A054B704700005904000034
:100180009101000068000020680200206800002043
:1001900000F002F800F03AF80AA090E8000C82445F
:1001A0008344AAF10107DA4501D100F02FF8AFF23C
:1001B000090EBAE80F0013F0010F18BFFB1A43F045
:1001C000010318476804000088040000103A24BFA7
:1001D00078C878C1FAD8520724BF30C830C144BFAC
:1001E00004680C60704700000023002400250026EE
:1001F000103A28BF78C1FBD8520728BF30C148BF8A
:100200000B6070471FB51FBD10B510BD00F011F891
:100210001146FFF7F7FF00F0ADF900F02FF803B437
:10022000FFF7F2FF03BC00F05BF9704770477047BF
:100230007047754600F028F8AE46050069465346FB
:1002400020F00700854618B020B5FFF791FFBDE804
:1002500020404FF000064FF000074FF000084FF02D
:10026000000B21F00701AC46ACE8C009ACE8C009BE
:10027000ACE8C009ACE8C0098D4670470446AFF34E
:1002800000802046FFF7CBFF0048704708000020A1
:100290002DE9F04104460B461546DFF8808008EB57
:1002A000C402002000260027002132E0002600279B
:1002B0004FF0FF0C0CFA01FC0CEA030CBCF1000F30
:1002C00025D0002019E023FA00FC4FF0010808FABD
:1002D00001F80CEA080CBCF1000F0DD04FEA8008C1
:1002E0004FF00F0C0CFA08FC4CEA06064FEA800CA3
:1002F00005FA0CFC4CEA0707401C0828E3D3D2F8A7
:1003000000C02CEA060C4CEA070CC2F800C0121D13
:1003100008310829CADDBDE8F08100002020024034
:1003200000BFFEE71FB50B4C606AE16A226B009CC0
:10033000A043019CA143029CA2432BB1009C2043FB
:10034000019C2143029C2243024C6062E1622263D1
:100350001FBD00000080084070471AB103680B43BE
:10036000036002E003688B43036070470849095C3F
:10037000084A52F82110096A074A32F81020514001
:10038000034A125C034B53F82220116270470000AD
:10039000F0050000DC050000F405000000BFFEE7EA
:1003A0000EB50020009001900290009820F480305B
:1003B00000F580300090009820F4002000F5002027
:1003C0000090019820F4804000F5804001900123C6
:1003D0009DE80700FFF7A6FF002280210320FFF71A
:1003E00057FF00224FF480710320FFF751FF0022D6
:1003F0004FF480611046FFF74BFF01228021074830
:10040000FFF7ABFF012211020448FFF7A6FF01220C
:1004100091020348FFF7A1FF0EBD000000600B40F2
:1004200000000B4000BFFEE770477047704704288C
:1004300008D14FF0E021096941F004014FF0E022BA
:10044000116107E04FF0E021096921F004014FF04C
:10045000E02211617047000001201A4908601A4922
:10046000C1F8A80000BF194800680028FBD0002090
:10047000154908624FF01060154988610120134941
:100480006439086000BF1148001F00680028FAD0D6
:100490001048006820F00700C01C0F49C1F8000296
:1004A00001200B4908620846406820F00300401C08
:1004B000486000BF0648406B032101EA90700128A4
:1004C000F8D1704700830840000010430801104332
:1004D00000800840000208400000084000BFFEE71E
:1004E00000BFFEE710B56FF00400FFF7A0FF0A4859
:1004F00000680A49B0FBF1F0094908700846007825
:1005000000EB4001C1EBC0104FF6FF7101EAC000E3
:100510000449088010BD00000400002000127A0089
:1005200000000020020000200146114A12884A43C0
:100530004FF0E0235A6100229A611A46126942F094
:1005400001021A6100BF4FF0E022106900F00102C1
:100550001AB100F48032002AF5D04FF0E02212697F
:1005600022F001024FF0E0231A6100229A617047E5
:1005700002000020FFF7B6FF03200246154B196862
:100580004FF6FF031940144B0B4343EA0221114B72
:10059000196000BFFFF704FF1AE00A20FFF7C4FF4D
:1005A000601CC4B2681CC5B2701CC6B20A2C03D150
:1005B00000240020FFF7DAFE142D03D100250120CE
:1005C000FFF7D4FE322E03D100260220FFF7CEFE25
:1005D000E3E700000CED00E00000FA0500000B402E
:1005E00000200B4000400B4000600B4000800B409F
:1005F0000303000080000001000400000002040466
:100600000080020004000100000F01020000004011
:100610000000040006000000080006000010004072
:100620000200000206000200000406004C06000062
:100630000000002008000000CC010000540600006B
:100640000800002060020000E80100000000000037
:0406500000A24A04B6
:040000050000019165
:00000001FF
