:020000040000FA
:1000000050050020550100005D0100005F01000067
:1000100061010000630100006501000000000000B4
:100020000000000000000000000000006701000068
:1000300069010000000000006B0100006119000070
:100040006F0100006F0100006F0100006F010000F0
:100050006F0100006F0100006F0100006F010000E0
:100060006F0100006F0100006F0100006F010000D0
:100070006F0100006F0100006F0100006F010000C0
:100080006F0100006F0100006F0100006F010000B0
:100090006F0100006F0100006F0100006F010000A0
:1000A0006F0100006F010000000000006F01000000
:1000B0006F0100006F0100006F0100006F01000080
:1000C0006F0100006F0100006F0100006F01000070
:1000D0006F010000000000000000000000000000B0
:1000E00000000000390700006F0100006F010000F0
:1000F0006F0100006F0100006F010000411A000055
:100100006F0100006F0100006F0100006F0100002F
:100110006F0100006F010000000000006F0100008F
:100120006F0100006F0100006F0100006F0100000F
:100130006F0100006F0100006F010000000000006F
:1001400000000000000000000000000000000000AF
:100150006F0100000648804706480047FEE7FEE7BB
:10016000FEE7FEE7FEE7FEE7FEE7FEE7FEE7FEE767
:100170006519000079010000DFF80CD000F04AFAA0
:1001800000480047812300005005002040EA010399
:100190009B0703D009E008C9121F08C0042AFAD23D
:1001A00003E011F8013B00F8013B521EF9D2704701
:1001B000F0B480EA0102D40F4200B2EB410F02D248
:1001C0000246084611464A0042D0C30DDDB2C1F3D3
:1001D000C752AD1A202D35DAC1F3160141F40002E1
:1001E00004B15242C5F1200602FA06F12A41104438
:1001F000B3EBD05F23D0C4B1012DA0EBC35009DC19
:10020000F0BC4FF0004202EAC352DBB200F500003E
:1002100000F075B9400000F1807000EBC350A0F110
:10022000807040EAD170490009E0490841EAC07194
:10023000A0EBC35000F50000400800EBC350F0BC39
:1002400000F054B96142012202EB4101001BF6E7C4
:10025000F0BC704781F00041AAE780F00040A7E7BA
:1002600080EA010210B502F00043400022D04A00AB
:100270001FD0010E01EB1261C0F35600C2F356020B
:1002800040F4000042F40002A0FB022000047F3989
:10029000140400D0401C50EA124001D44000491E12
:1002A000C2B20C0604EBD010401C4008802A02D0D9
:1002B00003E0002010BD20F00100002900DA00203A
:1002C000184310BD30B480EA010202F0004530F05E
:1002D000004221F0004013D090B1C30DD40DC2F301
:1002E0001601C0F31600E41A41F4000140F40002C4
:1002F0007D34914201D3641C00E04900002C02DAF5
:1003000030BC002070474FF400000023914201D31D
:10031000891A034340084FEA4101F7D151B1914294
:1003200002D14FF0004105E002D24FF0010101E09F
:100330006FF0010103EBC450284430BC00F0D6B884
:100340002DE9FE4F81EA030404F0004421F000414E
:1003500000944FF0000B23F0004350EA01045ED0FC
:1003600052EA03045BD0C3F30A54C1F30A552C4488
:10037000A4F2F3340194A0FB0254C1F3130141F43D
:100380008011C3F3130343F4801301FB024400FB09
:10039000034E840A970A44EA815447EA8357A4FB30
:1003A000076802958D0A05FB07854FEA932C04FB2D
:1003B0000C542705029D4FEA065847EA1637B5EB5D
:1003C00008056EEB070C870E920E47EA811742EA8A
:1003D0008312A7FB0201B6EB0B0164EB00042B0DAB
:1003E00043EA0C335E1844EB1C50DA465146E7FBF7
:1003F0000201C5F313044FEA0B3343EA14534FEAE7
:100400000432019C43EA0603A4F10C040294009C0C
:10041000CDE900B400F0B0F803B0BDE8F08F0020E3
:100420000146F9E7C10F80EAE0700844CA07962345
:10043000002100F064B896230022114600F05FB856
:100440000EB540F2334102910021CDE900110A4678
:100450000B4600F091F803B000BD00F0004220F020
:100460000040C10DC0F3160040F400007F2901DAFE
:1004700000207047962903DCC1F19601C84001E0D5
:1004800096398840002AF4D04042704701F000437A
:1004900030B421F0004150EA010206D00A0DA2F565
:1004A0006072C1F31301002A02DC30BC00207047E7
:1004B000440F44EAC104C100E01830BC00EBC25054
:1004C00000F014B8002801DBC0F10040002901DB76
:1004D000C1F1004181427047002801DBC0F10040BA
:1004E000002901DBC1F10041884270470029A8BF03
:1004F0007047401C490008BF20F00100704710B44D
:10050000B0FA80FC00FA0CF050EA010404BF10BC01
:10051000704749B1CCF1200421FA04F411FA0CF12E
:1005200018BF012121430843A3EB0C01CB1D4FEA67
:1005300000614FEA102042BF002010BC704700EB62
:10054000C35010440029A4BF10BC7047401C490090
:1005500008BF20F0010010BC704710B5141E73F1E5
:10056000000408DA401C41F1000192185B411A4373
:1005700001D120F0010010BD2DE9F04D92469B46BF
:1005800011B1B1FA81F202E0B0FA80F22032904665
:1005900000F052F804460F4640EA0A0041EA0B0117
:1005A00053465A46084313D0114653EA010019D066
:1005B000C8F14002504600F04EF805460E4650463F
:1005C0005946424600F038F8084305D0012004E0BF
:1005D00020463946BDE8F08D0020054346EAE07626
:1005E0002C4337430A986305E40AA0EB0800002275
:1005F000FD0A44EA47540A3002D500200146E9E7E3
:10060000010510196941DDE9084500196941BDE896
:10061000F04DA2E7064C074D06E0E06840F001030C
:1006200094E8070098471034AC42F6D3FFF7A8FDD2
:10063000A02C0000C02C0000202A04DB203A00FA85
:1006400002F1002070479140C2F1200320FA03F329
:10065000194390407047202A04DB203A21FA02F027
:100660000021704721FA02F3D040C2F120029140EC
:1006700008431946704710B500EB8104236722F048
:100680000303184403699207D20E1F249440A34326
:1006900091400B43036110BD10B56FF0FF0404EBF4
:1006A00002225B1E42EA03420A43826010BD0A0F27
:1006B000C0F80021C0F8041170470029D0F80411D7
:1006C00002D041F0010101E021F00101C0F8041164
:1006D000704700002DE9F0479146164A4FF0FF0A97
:1006E00002EBC005002200240AFA02F02346084269
:1006F00019D04FF0010C00200CFA02FC4FF00F084B
:1007000021FA00F616EA0C0F06D0860008FA06F762
:100710003C4309FA06F73B43401C0828F0D32868FD
:10072000A0431843286008322D1D082ADBDDBDE8F0
:10073000F08700002020024070B53C4800F08AF8A5
:100740003B4DE879401CC0B2E871C82808D139494E
:10075000086888B10020086037480178491C01709A
:10076000364800240078012808D001F071FF344891
:100770000178012911D017E00120ECE7686B401CDB
:10078000686301F0A1FF696BA86A814249DB6C6371
:10079000BDE87040072002F03FB9AC632C63EC6207
:1007A00004702848AC7004706878274A01280AD180
:1007B0002649002009780C3102E01454401CC0B2D4
:1007C0008842FAD36C70107901282BD12048007828
:1007D000012827D15079092820D2DFE800F01F0531
:1007E000090D11151B1F2300BDE8704001F092B8E0
:1007F000BDE8704001F0E6BABDE8704001F0F4BE1B
:10080000BDE8704001F000BBD1799079BDE870403F
:1008100001F034BCBDE8704001F0EEBF01F054FFC0
:100820002C7070BDBDE8704001F04EBF0060074005
:100830002000002028046C4300000020030000205A
:100840007500002002000020C60100207700002073
:1008500076000020416821F001014160BFF34F8F15
:1008600070470029016802D041F0040101E021F045
:100870000401016070470029016802D041F00101C4
:1008800001E021F0010101607047C16070478160A3
:100890007047000070B5124E0446706B850F00F073
:1008A00023F82060012D05D00E48022D02D0032D23
:1008B00000D000206060316AC840A0603168C1F398
:1008C000015120FA01F1E160B16AC1F30241072947
:1008D00002D0C840206170BD0621B0FBF1F0F9E7FD
:1008E0000080084000127A000C49D1F8A4000028CA
:1008F00013D0086A0A48D1F8FC1301290DD0094A1F
:100900009169C1F3C55101B940219269C2F34153C4
:1009100001229A40B0FBF2F04843704700001043B8
:1009200000127A000080084000B585B06846FFF7E5
:10093000B1FF039805B000BDF0B5074F7C6AFD6AB2
:100940003E6B84438D43964313B104430D431643DA
:100950007C62FD623E63F0BD0080084003498A6A04
:1009600022F4E02242EA004088627047008008409A
:100970002DE9F0410E46074615460421052000F0FA
:100980002AF80021012001F093F980210A2000F0CB
:10099000B5FF002405E0395D092001F089F9641CE8
:1009A000E4B2B442F7D30321012001F081F9FF241E
:1009B000052000F0EBFE641E14F0FF0401D0400798
:1009C000F6D5222000F0E2FE2870212000F0DEFEA5
:1009D0006870BDE8F08170B50D46044600F0D6FEA3
:1009E000A843C1B22046BDE8704001F061B90000E3
:1009F00070B5002204210120FFF76CFE00220821BF
:100A00000120FFF767FE002210210120FFF762FEA0
:100A1000002220210120FFF75DFE2B4C0122042142
:100A2000204600F03DFA01220821204600F038FA65
:100A300001221021204600F033FA01222021204615
:100A400000F02EFA002204210320FFF743FE0022CB
:100A500008210320FFF73EFE002210210320FFF7AC
:100A600039FE002220210320FFF734FE174C01221B
:100A70000421204600F014FA01220821204600F04B
:100A80000FFA01221021204600F00AFA012220214B
:100A9000204600F005FA4FF47F4500222946032046
:100AA000FFF718FE01222946204600F0F9F900223E
:100AB000C0210320FFF70EFE2046BDE87040012252
:100AC000C02100F0EDB9000000200B4000600B4099
:100AD00010B50446012000F0F1FE06490C600868DC
:100AE0000028FCD1801E00F0E9FEBDE81040002087
:100AF00000F0E4BEAC0000202DE9F04F0546E648CA
:100B00000C46C3B0C1686FF0010881F0004B8168EA
:100B100081F0004A416881F00046C16981F00041DE
:100B200041918169406981F0004980F00040409026
:100B3000D948B0E80E103F91CDF8F4C0CDE93A2382
:100B40000FC83E90CDE93812D3493C931C22203186
:100B500031A8FFF71BFBD049C4223C316846FFF7A0
:100B600015FB58462968FFF7ADFC68D23D99286807
:100B7000FFF7A8FC63D250462968FFF7ADFC07D801
:100B800047463B993D98FFF765FB064650461FE0F8
:100B900030462968FFF7A0FC0CD8DDE93A104FF089
:100BA000FF37FFF757FB824630462968FFF752FBB5
:100BB00051463BE03F992868FFF784FC0AD800279C
:100BC0003F993A98FFF746FB06463F9880F0004071
:100BD000296828E03A992868FFF774FC08D80127AB
:100BE0003F993A98FFF736FB064629683A981AE08B
:100BF0003B992868FFF766FC08D8DDE93A10022720
:100C0000FFF728FB064629683B980CE03D992868C9
:100C1000FFF758FC22D803273B993D98FFF71AFBB2
:100C2000064629683D98FFF715FB3146FFF74AFB5A
:100C30009A49FFF715FBFFF710FC06460EE05846F1
:100C40002968FFF749FC02D84746642606E03D992B
:100C50002868FFF741FC01D8032700264198C6F118
:100C6000640B05462168FFF72DFC67D23C9920688C
:100C7000FFF728FC62D248462168FFF72DFC06D812
:100C800039993C98FFF7E6FA054648460CE040984B
:100C90002168FFF721FC09D8DDE938104FF0FF3853
:100CA000FFF7D8FA0546409821683BE03E99206856
:100CB000FFF708FC0AD84FF000083E993898FFF774
:100CC000C9FA05463E9880F00040EDE73899206863
:100CD000FFF7F8FB09D84FF001083E993898FFF765
:100CE000B9FA0546216838981CE039992068FFF761
:100CF000E9FB09D8DDE938104FF00208FFF7AAFA3E
:100D00000546216839980DE03C992068FFF7DAFB29
:100D100025D84FF0030839993C98FFF79BFA054610
:100D200021683C98FFF796FA2946FFF7CBFA5B4912
:100D3000FFF796FAFFF791FB814610E028462168FD
:100D4000FFF7CAFB02D84FF0640908E03C9920681D
:100D5000FFF7C2FB03D84FF003084FF00009C7EBC1
:100D6000C701684600EB810000EB8801C9F164040B
:100D7000D1E91002D1E9177A90464E4501DC35469B
:100D800000E04D465946CB4500DC8946A64200DDD1
:100D900026465946A34500DC0C46B84205D14D45D0
:100DA00002DD4FF0000900E00025404504D1B542C6
:100DB00001DD002600E00025504504D1A54201DDFB
:100DC000002400E00025474505D1B14501DD00269E
:100DD00001E04FF00009574505D1A14501DD002490
:100DE00001E04FF00009D04504D1A64201DD002406
:100DF00000E000260DF1C40B0028594602DB51F833
:100E0000200004E0A1EB8000006880F00040FFF7C4
:100E100024FB3890002F02DB5BF8270004E0ABEBEB
:100E20008700006880F00040FFF717FB3990B8F1A9
:100E3000000F02DB5BF8280004E0ABEB88000068E1
:100E400080F00040FFF709FB0746BAF1000F02DB14
:100E50005BF82A0004E0ABEB8A00006880F00040F9
:100E6000FFF7FBFA3899399A694309FB021206FB2E
:100E700007F104FB0010104405EB0901321911447D
:100E800090FBF1F0FFF7CEFA10F1FF4F01D380F0A5
:100E9000004043B0BDE8F08FA02A00000000C84227
:100EA000002A026801D00A4300E08A4302607047CA
:100EB000002A426801D00A4300E08A43426070473A
:100EC00042B1012A09D082688A438260C2688A439B
:100ED000C260704782680A43F7E7C2680A43C2608B
:100EE00082688A4382607047C069084000D0012050
:100EF00070470AB1416270478162704700290169F9
:100F000002D041F0010101E021F0010101617047CF
:100F1000F0B50B78076D00EB830404F1400204F197
:100F2000900504F1A0065B0001249C40E4432740A7
:100F30000765476D27404765446D4F799F403C43A7
:100F40004465146840F20717BC43146014684F8866
:100F50003C431460CA882A600A893260026D0979AC
:100F600099400A430265F0BD002101704180017182
:100F70004171C18001817047C0F8881070470A88AC
:100F8000C0F888204A88C0F88420026822F44032E1
:100F90000260026822F08072026002684B681A43A5
:100FA000026009898167704700214FF6FF72416036
:100FB000028041804FF480710181704710B500229A
:100FC00001210220FFF786FB022100220846FFF7DD
:100FD00081FB002204210220FFF77CFB0022082174
:100FE0000220FFF777FB002210210220FFF772FB9F
:100FF000002220210220FFF76DFB00224021022069
:10100000FFF768FB002280210220FFF763FB3D4CC5
:10101000002201212046FFF743FF00220221204643
:10102000FFF73EFF002204212046FFF739FF002290
:1010300008212046FFF734FF002210212046FFF749
:101040002FFF002220212046FFF72AFF0022402107
:101050002046FFF725FF002280212046FFF720FFD2
:10106000002201212046FFF72BFF0022022120460B
:10107000FFF726FF002204212046FFF721FF002270
:1010800008212046FFF71CFF002210212046FFF711
:1010900017FF002220212046FFF712FF00224021E7
:1010A0002046FFF70DFF002280212046FFF708FFB2
:1010B000012211462046FFF7FBFE012202212046B5
:1010C000FFF7F6FE012204212046FFF7F1FE012280
:1010D00008212046FFF7ECFE012210212046FFF7F1
:1010E000E7FE012220212046FFF7E2FE01224021F7
:1010F0002046FFF7DDFE20460122BDE8104080219A
:10110000FFF7D6BE00400B4010B54FF40061094810
:10111000FFF7EAFE084C20B108490020E0700860A3
:1011200010BDE07818B90221084601F0AFF801209F
:10113000E07010BD00400B40000000205400002073
:1011400010B5412802D04FF0FF3010BD08210846ED
:10115000FFF741FC3D21112000F0AAFD8621172058
:1011600000F0A6FD7F21262000F0A2FD1E212D20EB
:1011700000F09EFD00212C2000F09AFD8D212A20F8
:1011800000F096FD3E212B2000F092FD0120401E34
:10119000FDD200F07BF8002010BD0029016F02D0C5
:1011A00041F0100101E021F01001016770470029B2
:1011B000016902D041F0010101E021F0010101616A
:1011C0007047F0B50B78076D00EB830404F1400223
:1011D00004F1900504F1A0065B0003249C40E44365
:1011E00027400765476D91F806C091F807E0274052
:1011F0004CEA4E0C0CFA03FC4CEA070CC0F854C045
:10120000C76E91F809C027400C7A44EA4C049C4010
:101210003C43C466146840F20717BC43146014686A
:101220004F883C4314604A892A608A8932600A796F
:10123000497942EA4101026D994011430165F0BDCF
:10124000C0F8881070470A88C0F888204A88C0F81B
:101250008420026822F440320260026822F0807228
:10126000026002688B681A4302600A79C0F88C2019
:1012700089898167704700F01F0201219140400970
:10128000800000F1E020C0F80011704710B5142074
:1012900000F07CFA800705D10321BDE8104014203E
:1012A00000F02CBB10BD70B50646082188B00024A4
:1012B0000846FFF790FB00210D2000F0F9FC80218B
:1012C0000E20FFF788FB93208DF8040020208DF876
:1012D000050006A801AB0090022219460C2000F080
:1012E00042F805000ED1002101A8425C7254425C14
:1012F000491C5440C9B20429F7D3405CA04201D034
:101300006FF0010580210E2000F0F8FA08B02846A1
:1013100070BD30B587B08DF804008DF80510002041
:1013200001A9145C0D18401CC0B2AC700628F8D39B
:1013300000200C181A5C401CC0B222720628F8D398
:1013400006A800900B460C220E2000F00CF80400BA
:1013500004D1082000F01AFA000701D46FF001044C
:1013600007B0204630BD2DE9FF5F0025DDF838B01D
:1013700017468A4681466FF001082E460C2805D094
:10138000B9F10E0F04D11225102601E07725302681
:1013900045F08001022000F08BFC80210420FFF743
:1013A0001AFB0021012000F083FC80210A2000F0BC
:1013B000A5FA002405E01AF80410092000F078FCD2
:1013C000641CBC42F7D34946012000F071FCB9F11E
:1013D0000C0F03D180210D2000F090FA4FF4C87457
:1013E000042000F0D3F90746641E03D0F80701D1AA
:1013F0003742F5D080210D20FFF7EDFA84B30620A7
:1014000000F0C4F910F01B0F2AD12F404FF0000854
:10141000F9074FF0FF3000D08046B9F10C0F1FD113
:101420000A2000F0B3F905460C2000F0AFF910F0E7
:1014300007004FEAC50101D008390144CBF800107C
:1014400025B1122D00D91225002407E00125FBE764
:10145000092000F09BF903990855641CAC42F7D3AE
:1014600080210C2000F04AFA0021012000F020FC2D
:1014700004B04046BDE8F09F30B587B00C4630213F
:101480008DF8041001AD8DF8050002212846AA1C34
:10149000FFF76EFA06A801AB0090042219460C2053
:1014A000FFF761FF10B90699902903D06FF0010092
:1014B00007B030BD0023E95CE1545B1CDBB2102BAC
:1014C000F9D3F5E730B50C460546082187B0084644
:1014D000FFF781FA07210D2000F0EAFB0321142019
:1014E00000F00CFA06A801AB00908DF80450012220
:1014F00019460C20FFF737FF10B90699102903D0C1
:101500006FF0010007B030BD9DF8041021709DF808
:1015100005106170F6E7000070B501221C4D540201
:1015200021462846FFF7E5FC0520FFF7D1FA002207
:1015300021462846FFF7DDFC0520FFF7C9FA012206
:1015400021462846FFF7D5FC0A20FFF7C1FA0F21F4
:10155000012000F0ADFB0A20FFF7BAFA3D2111206F
:1015600000F0A6FB1E212D2000F0A2FB00212C2064
:1015700000F09EFB8D212A2000F09AFB3E212B20BB
:1015800000F096FB4021152000F092FB002070BD7A
:1015900000200B4010B588B093218DF80410702105
:1015A0008DF8051000218DF80A1001AA5418435C2B
:1015B000A370445C9DF80A30491C6340C9B28DF8A1
:1015C0000A300429F2D3072101A8D21DFFF7D0F970
:1015D00008210846FFF7FFF906A801AB0090092291
:1015E00019460C20FFF7BFFE10B90699182901D043
:1015F0006FF0010008B010BD70B501224021104607
:10160000FFF768F8012280211046FFF763F80122F6
:10161000140221461046FFF75DF8012256023146BA
:101620001046FFF757F8164D012240212846FFF7D4
:1016300037FC012280212846FFF732FC0122214697
:101640002846FFF72DFC012231462846FFF728FCEB
:101650000122940221461046FFF73CF80022214661
:101660002846FFF71DFC002221462846FFF728FCEC
:1016700021462846BDE870400122FFF719BC000052
:1016800000200B4070B51B4D1949687900F0D6F861
:101690000122194E16490024B0B10B78002053B135
:1016A0004B7843B18B7833B1CB7823B10C54401CC9
:1016B000C0B21028FAD36C7032600F490C39086838
:1016C000A0B10020086070BD0878012802D0FF2872
:1016D00005D009E04878FF2806D12A7104E048784F
:1016E000FF2801D101F0BAF93460E6E70120E9E70B
:1016F000B00000200000002014046C4370B5214DA0
:1017000080212846FFF7F0FB1F4C4000402120704D
:101710002846FFF7E9FB217808434000207020218C
:101720002846FFF7E1FB2178084340002070102194
:101730002846FFF7D9FB2178084340002070082194
:101740002846FFF7D1FB2178084340002070042190
:101750002846FFF7C9FB217808434000207002218A
:101760002846FFF7C1FB2178084340002070012183
:101770002846FFF7B9FB21780843207000F0A0FD50
:10178000207870BD00400B408C0000202DE9F04116
:10179000294E05460024224680213046FFF7A9FB4A
:1017A000002240213046FFF7A4FB7E2000EA4500DE
:1017B00040F0800708254FF48078380601D50122D3
:1017C00000E0002241463046FFF793FB01228021D2
:1017D0003046FFF78EFB7806070E00228021304648
:1017E000FFF787FB6D1E15F0FF05E6D10825EF0119
:1017F000012280213046FFF77CFB6006040E39464B
:101800003046FFF771FB08B144F00104002280214B
:101810003046FFF76EFB6D1E15F0FF05E8D1012283
:1018200040213046FFF765FB012280213046FFF75B
:1018300060FB2046BDE8F08100200B4070B50D46EE
:101840000A2413495220FFF73DFEA4F1010410F0D1
:10185000FF0F64B201D0002CF3D10E48FFF723FD37
:1018600090B90C48FFF796FE70B90C48094B0A4A2C
:1018700001786020FFF74DFD30B90948294600780E
:10188000FFF7FAFD002801D06FF0010070BD0000E5
:101890001D00002019000020130000201F00002060
:1018A000050000204FF0E0210428086903D020F053
:1018B00004000861704740F00400FAE74FF0E021AF
:1018C00030B10128086906D020F001000861704796
:1018D00000208861704740F00100F7E74FF0E021F9
:1018E0000028086902D040F0020001E020F0020068
:1018F000086170474FF0E0214861704770B50D46B0
:101900000446FFF743FF2843C1B22046BDE87040BC
:1019100000F0CEB970B50F480F4A01250178D27991
:101920000E4C914201D1407818B100F0A9FA25700F
:1019300070BD00F0C9FE032001F06EF82078012888
:1019400003D10321022000F0A1FC65700220207069
:1019500070BD0000B0000020C60100202000002063
:1019600000F03AB814480121C0F80013134AC2F835
:10197000A810D2F80831002BFBD0002313624FF0DF
:1019800010638361C2F8A410D2F80431002BFBD09D
:101990000B4AD2F8003223F00703DB1CC2F80032F6
:1019A0000162426822F00302521C4260426BB1EBBA
:1019B000927FFBD170470000008008400000104378
:1019C000000008404FF4F8104FF48641014A01230B
:1019D000FEF7B2BF4201010103480168002902D0AD
:1019E0000168491E01607047AC0000202DE9F041FC
:1019F0004FF08040816889071CD50F4DA9686A683F
:101A0000914205D1BDE8F0410022022100F0E2B888
:101A10000A4E002407466868315C384600F036F903
:101A20002879401C00F07F006860A968814201D0DD
:101A3000641CF0D0BDE8F08174000020CC020020CE
:101A40002DE9F05F4FF080404FF000088168C146FB
:101A5000444649071FD5834600F00BF94B4E4A4DCB
:101A60000027317806F10C0A6854491CC8B230705E
:101A7000832877D22978AA290ED037705C461AF8C5
:101A80000810204600F002F908F1010808F0FF08EC
:101A9000B8F1090FF3D373E0032871D96978552998
:101AA0000ED037705C461AF80810204600F0EEF8A9
:101AB00008F1010808F0FF08B8F1090FF3D35FE05F
:101AC000A978C91C81425BD8811E07E015F809205E
:101AD00009F101092244D4B209F0FF098945F5DD75
:101AE000284410F8010CA0422ED101202849707022
:101AF000B0700870002412E0295D584600F0C6F866
:101B0000687901280FD0072811D0032805D00728AD
:101B100003D01D49285D83310855641CE4B2307838
:101B20008442E9D31BE01B49285D0855F1E7307872
:101B3000A11D421E9142F0DA134A2919833A89798C
:101B40001155C01FF070E8E73770002458461AF8A6
:101B5000041000F09BF8641CE4B2092CF6D3377033
:101B60000EE0FFE737705C461AF80810204600F0D8
:101B70008DF808F1010808F0FF08B8F1090FF3D358
:101B8000BDE8F05FFFF732BFC601002074000020FF
:101B900073000020C0000020C2680A43C260704782
:101BA00070B505460C46C88889882A69084321898A
:101BB00022F01F02114308432861686A618920F0FE
:101BC000030008436862FEF7AFFE2168B0FBF1F046
:101BD000A86370BD002A426801D00A4300E08A432E
:101BE0004260704770B515460446FFF7D9FF0621DD
:101BF0002046FFF7D1FF012D05D0A826022D0BD0DE
:101C0000032D10D025E00021204600F041F80121ED
:101C1000204600F043F81CE00021204600F023F8A5
:101C2000012211460DE00021204600F031F801218B
:101C3000204600F033F80021204600F014F801227D
:101C40000F212046FFF7C6FF26620121204600F043
:101C500013F8B4F1804F04D03120BDE87040FFF795
:101C60000ABB2F20F9E7C26822F0C0020A43C26013
:101C70007047006880B270470029C16802D041F403
:101C8000007101E021F40071C1607047016070478C
:101C9000C26822F030020A43C26070470029C1685E
:101CA00002D041F4807101E021F48071C16070477D
:101CB0002DE9F041294E0D46044600228021304690
:101CC000FFF717F9002240213046FFF712F97E2076
:101CD00000EA440708244FF48078380601D5012231
:101CE00000E0002241463046FFF703F9012280213F
:101CF0003046FFF7FEF87806070E002280213046B6
:101D0000FFF7F7F8641E14F0FF04E6D108244746F5
:101D1000280601D5012200E0002239463046FFF7AF
:101D2000E8F8012280213046FFF7E3F86806050E47
:101D3000002280213046FFF7DCF8641E14F0FF0417
:101D4000E6D1012240213046FFF7D3F83046BDE806
:101D5000F04101228021FFF7CCB8000000200B40A9
:101D600002E008C8121F08C1002AFAD17047704764
:101D7000002001E001C1121F002AFBD170470000C2
:101D800010B50620FEF7EAFD022201210020FEF731
:101D9000A1FC0B4C01231A4602212046FEF77CFCD5
:101DA0000023012219462046FEF765FC2103204648
:101DB000FEF77DFC2046BDE810400121FEF77DBC0A
:101DC0000000014010B50D480D4A0E4C0178D27943
:101DD000914202D14078FE2805D003202070BDE852
:101DE000104000F04DB80420207000F06DFC012080
:101DF00000F012FE0120607010BD0000B000002055
:101E0000C60100202000002010B50D480D4A0E4CE0
:101E10000178D279914202D14078FD2805D0052081
:101E20002070BDE8104000F02BB80620207000F0B4
:101E30004BFC0A2000F0F0FD0120607010BD000096
:101E4000B0000020C60100202000002070B50A4D1F
:101E500000240A4EE87029716A78AB7848405A40ED
:101E600042406A71295D3046FFF710FF641CE4B2FE
:101E7000072CF7D370BD000098000020000004403C
:101E80002DE9F05F00F0E4FB6B4D286800F022FBC9
:101E9000DFF8A8A100F10A015446C4E90710CAF806
:101EA000240067480078FEF7C6FA2064616CFEF7EC
:101EB000D1F90AF14801A064A1F10800FEF71CFE67
:101EC000E063206C60645F480078012826D05F4C96
:101ED00029685E4D5C480835261F271D4FF0000815
:101EE0004FF001094FF0020B012938DD0121FEF707
:101EF000FBFF012819D0DAF82000514605281ED032
:101F00000428C4F80080C5F80080C6F80090C7F81F
:101F100000901FD0C869486103208AE04C499AF8B4
:101F20000800085C00F0DAFB58E0C4F80090C5F83F
:101F30000080C6F80090C7F80090042077E0C4F84D
:101F40000080C5F80080C6F80080C7F8009042F213
:101F5000107000E064204861CAF818B03EE0B1F1AA
:101F6000FF3F31DA8021FEF7BFFF012812D0DAF8F7
:101F700020005146052816D00428C4F80080C5F872
:101F80000080C6F80090C7F8009019D0042048617E
:101F9000486A4EE0C4F80080C5F80090C6F800908A
:101FA000C7F8009042E0C4F80080C5F80080C6F889
:101FB0000090C7F8008042F21070C1F814B038E009
:101FC0006420C1F814B034E0012927D030683060B3
:101FD000386838602068206028682860DAF81400C3
:101FE000544600EBC00101EB00111A48026802EBF5
:101FF000C101CAF80C10DAF8180000EBC00303EBBB
:10200000001002EB8000CAF810001348FFF718F91F
:102010002169BDE8F05F1148FEF7AEBFC6F8009039
:10202000C7F80090C4F80080C5F800800320CAF803
:102030001400CAF81800D1E7940000202000002006
:102040008D0000200400002000400B400C0464437D
:10205000430100209000002000D0024000E0064034
:1020600010B56FF00400FFF71DFC42F22830FFF7B7
:1020700041FCBDE810400120FFF730BC2DE9F05FC6
:102080008B466C49497905294CD16B4FDFF8AC81FF
:10209000694E083701256A4CD8F8001007F1040989
:1020A00006F1040A40F6340201280DD0022839D185
:1020B0002346D86A401CD862904201DD1846C262AD
:1020C000BBF1020F46D070E0206B401C20639042B1
:1020D00000DD22634FF416734FF4AF62BBF1020FC1
:1020E0000BD0BBF1010F1DD1206B98421EDA356079
:1020F0003D600020C9F8000036E0206B984207DA06
:1021000035603D60C9F800500022CAF800200BE09D
:10211000A0F5167090420DD300F0D6FA082000F01A
:102120007BFC6571BDE8F09F44465CE0A0F516704D
:10213000904207D235603D600020C9F80000CAF81F
:102140000000F1E700F0C0FA082000F065FC6571BE
:102150006570E7E73A4A40F2DC53D06A984206DA03
:1021600035603D60C9F80050CAF80050DCE7A0F2C5
:10217000DC50C828BBD333480078182806D01C2868
:1021800004D0382802D01838202850D800241571DF
:1021900000F09AFA092000F03FFC26492A48025D27
:1021A0000A55641CE4B20A2CF9D3BBF1010FB9D172
:1021B000234940F2DC52C86A904206DA35603D603D
:1021C000C9F80050CAF800500AE0A0F2DC50C82854
:1021D00012D235603D60C9F800500020CAF80000F6
:1021E000D8F8001044461948FFF72AF82168BDE8DE
:1021F000F05F1748FEF7C0BE12480078182806D0D6
:102200001C2804D0382802D0183820280FD80024E1
:102210000D7100F059FA092000F0FEFB05490A484B
:10222000025D0A55641CE4B20A2CF9D37AE73560E2
:102230003D6077E7C6010020080464439000002059
:10224000200000208C000020C000002000D00240B0
:1022500000E0064070B54FF41844002221460220E9
:10226000FEF738FA084D002221462846FEF718FEF0
:10227000002221462846FEF723FE21462846BDE8D7
:1022800070400122FEF714BE00400B4070B50A4DAD
:1022900000240A4EE87029716A78AB7848405A40A9
:1022A00042406A71295D3046FFF7F0FC641CE4B2DD
:1022B000072CF7D370BD00009F00002000000440F1
:1022C00070B52D4E80213046FEF70EFE2B490024BE
:1022D0000125012840D00D6040213046FEF704FE64
:1022E0002649091F012839D00D6020213046FEF70C
:1022F000FBFD22490839012832D00D6010213046FB
:10230000FEF7F2FD1D490C3901282BD00D60082184
:102310003046FEF7E9FD19491039012824D00D6037
:1023200004213046FEF7E0FD1449143901281DD080
:102330000D6002213046FEF7D7FD104918390128FB
:1023400016D00D6001213046FEF7CEFD0B491C3939
:1023500001280FD00D6070BD0C60BDE70C60C4E7B4
:102360000C60CBE70C60D2E70C60D9E70C60E0E7CB
:102370000C60E7E70C6070BD00400B403C046C4310
:10238000FFF720FB00F0AAF800F0F0F8FFF7F8FCE8
:1023900000F0E6FA00F0FEFAFEF710FEFEF728FB6A
:1023A000FFF758FF3F4901246002C1F800013E4891
:1023B00000684FF47A71B0FBF1F03C4D00EB800106
:1023C0002846FEF762FA00212846FEF760FA01214E
:1023D0002846FEF750FA01212846FEF742FAFFF799
:1023E0003FFEFFF709F9FFF797F84120FEF7A8FE37
:1023F00001210220FFF72AFD2D4804600025001D61
:102400000560001D0460001D05604FF4C0642A468D
:1024100021460220FEF75EF9012221462548FEF7FB
:102420003FFD284EDFF89080244CDFF89490371D54
:1024300098F80000012801D003280BD1A0780128CA
:1024400008D12148D0F8840320B90121A57008469D
:10245000FFF7FCFC20783C2810D91C482570D0F8E8
:10246000B000C0F30B00E080FDF7EAFF4FF06632EA
:10247000174BFDF765FFFEF709F8A060D9F8A00338
:10248000FFF700F9FEF740FE306830B10020306001
:10249000386820B100203860CAE70120F7E7012042
:1024A000F9E7000004E000E0A80000200060074019
:1024B0000804644300400B4020000020000000207E
:1024C00000007043240468430000604300000140A2
:1024D00066664A3F002800DC4042704770B504221F
:1024E00088B008211046FEF7F5F81E4E00241E4D58
:1024F000B088ADF810004FF48070ADF81C00ADF856
:1025000012408DF81440069404A92846FEF79BFE5D
:1025100001218DF804108DF805408DF8001007207A
:102520008DF806408DF80840ADF802008DF80740A0
:102530008DF8091071683220491C41436420B1FBB9
:10254000F0F0ADF80A0069462846FEF73AFE012190
:102550002846FEF722FE01212846FEF728FE08B095
:1025600070BD00008C00002000D0024070B586B025
:10257000042240210020FEF7ADF803A8FEF714FD69
:10258000174D00240494A888ADF80C00154EADF842
:102590000E40ADF8144003A93046FEF7F0FC684643
:1025A000FEF7E2FC02208DF800000620ADF80200E4
:1025B00001208DF804008DF805406968491C01EB85
:1025C00041106421B0FBF1F0ADF8060069463046D9
:1025D000FEF79EFC01213046FEF790FC06B070BD70
:1025E0008C00002000E0064070B5154D00242878CE
:1025F00004280CD001280CD002280CD003280CD0C1
:102600000A280CD00F48007801280AD00CE00120DD
:1026100008E0022006E0032004E0042002E0062097
:1026200000E0072000F0F8F907480849025D0A5564
:10263000641CE4B2142CF9D30020A87070BD000013
:10264000200000200300002049020020C6010020D5
:1026500010B5FFF753F81B498028487019D0C028DF
:1026600017D0602818D0302819D038281AD0182848
:102670001BD01C281BD00C281BD00E281BD00628D2
:102680001BD001281BD0032819D000208860087AAD
:1026900010BD6FF00500F9E76FF00300F6E76FF08B
:1026A0000200F3E76FF00100F0E70120EEE70220FF
:1026B000ECE70320EAE70420E8E70520E6E7062048
:1026C000E4E700008C000020034900200860024974
:1026D0000831086070470000080464432DE9F05F8A
:1026E0003D4F3E4B3E4DD7F838803C4A08F101083B
:1026F0000833C7F83880DFF8ECA0DFF8ECB001242D
:102700000026296803F1040C02F10409B8F5FD7FE5
:1027100004DB40F2F918C7F8388002E0B8F1640F22
:102720001DDDA8F16408B8F5AF7F1AD8012804D0E0
:10273000022805D0032812D004E016601C6001E0D6
:1027400014601E60CCF80060C9F800605046FEF7C7
:1027500077FD58462968BDE8F05FFEF70DBC1460B0
:10276000ECE7012804D0022804D0032805D006E0B5
:10277000166003E014601E6001E014601C60CCF879
:102780000060C9F800605046FEF75AFD58462968B7
:10279000FEF7F2FB1548007830280AD00C2808D044
:1027A000182806D01C2804D0382802D01838202831
:1027B00010D8B86BB0F5967F0CDDFC70387A0C49F8
:1027C000401CC0B238720E700A49BE630978884254
:1027D00000D13E72BDE8F09F200000200804644351
:1027E0009000002000D0024000E006408C00002055
:1027F00004000020770000202DE9F05F514D4FF4D8
:102800002F71A86B401CA863884200DDA9634E4865
:102810004E4F4E4EC07908370124DFF834814FF017
:10282000000907F1040A06F1040B01283BD14648D0
:1028300083794046022B016846480078A0F11802CF
:1028400013D0012B1DD0032B60D1182805D01C28D4
:1028500003D0382801D0202A17D80D2000F0DCF84A
:10286000FFF732FFEC706C701DE0AB6BC82B0CDD1A
:102870001828F2D01C28F0D03828EED0202AECD925
:1028800046E0A86BB0F5167FE7DC34603C60CAF820
:102890000090CBF800403048FEF7D2FC2F48D8F823
:1028A0000010FEF769FB2848C17902292ED18079F2
:1028B00002280FD001282ED0032827D125480078E0
:1028C00018281CD01C281AD0382818D018382028CE
:1028D00015D924E0A86BC82806DC34603C60CAF82F
:1028E0000040CBF8009020E01A480078182806D065
:1028F0001C2804D0382802D01838202808D80D20E9
:1029000000F08AF8FFF7E0FEEC706C70BDE8F09F15
:1029100034603C60FAE7A86BB0F5167FEFDC3460FA
:102920003C60CAF80040CBF8009044460A48D8F80A
:102930000010FEF785FC2168BDE8F05F0748FEF750
:102940001BBB000020000020C601002008046443D7
:10295000900000208C00002000D0024000E00640E3
:102960000EB506220C210020FDF7B4FE4FF4E13035
:1029700000900120ADF804000020ADF80800ADF88B
:102980000600ADF80A00032269464FF08040FFF7C9
:1029900029F90EBD3EB5002422464FF4844101239F
:1029A0001046FDF7C9FF062230210020FDF792FEF8
:1029B0004FF4165000900120ADF80400ADF8084027
:1029C000ADF80640ADF80A40114C69462046FFF7C5
:1029D000E7F801212046FFF761F901212046FFF7C2
:1029E0004BF9002202211046FDF774FE094C00222B
:1029F00002212046FEF754FA002202212046FEF76B
:102A00005FFA012202212046FEF752FA3EBD000085
:102A10000000044000000B402DE9F0470E4F064631
:102A2000B878002816D10024301DC5B2BD7107F159
:102A30004C084FF0804988F8056088F8065018F86F
:102A400004104846FFF722F9641CE4B2072CF2D3C5
:102A50000120B870BDE8F087200000202DE9F04784
:102A6000DFF83880064698F80100002813D10024CA
:102A7000301DC7B208F10C054FF080496E71AF717F
:102A8000295D4846FFF702F9641CE4B2072CF5D330
:102A9000012188F80110BDE8F08700000000002047
:102AA000000000000000C8410000344200008242E3
:102AB0000000000000000040000080400000C04016
:102AC0000000000000008C420000A0420000B44260
:102AD0000000C8420000DC420000F0420600000096
:102AE00006000000060000000500000005000000D0
:102AF00005000000040000000500000004000000C4
:102B000004000000030000000200000002000000BA
:102B100001000000040000000300000002000000AB
:102B200001000000000000000100000002000000A1
:102B3000040000000300000001000000000000008D
:102B4000010000000300000004000000020000007B
:102B50000100000000000000010000000200000071
:102B6000030000000400000001000000020000005B
:102B70000200000003000000040000000400000048
:102B80000500000004000000050000000500000032
:102B9000050000000600000006000000060000001E
:102BA000000000000000F0410000484200008C429C
:102BB00000000000000070410000F04100003442BD
:102BC00000000000000020410000A0410000F04192
:102BD0000000204200004842000070420600000051
:102BE00005000000040000000300000003000000D6
:102BF00003000000020000000500000004000000C7
:102C000003000000020000000200000001000000BC
:102C100000000000040000000300000002000000AB
:102C20000100000000000000FFFFFFFFFEFFFFFFAC
:102C3000030000000200000001000000000000008E
:102C4000FFFFFFFFFDFFFFFFFCFFFFFF0400000091
:102C5000030000000200000001000000000000006E
:102C6000FFFFFFFFFEFFFFFF050000000400000064
:102C7000030000000200000002000000010000004C
:102C80000000000006000000050000000400000035
:102C90000300000003000000030000000200000029
:102CA000C02C000000000020B0000000601D0000EB
:102CB000702D0000B0000020A0040000701D000076
:102CC000000000000004000000000000AA550400FD
:102CD00001FF00FFFFFFFFFFFF01010101FFFF07F1
:102CE00000000000000000000000000000000000E4
:102CF00000000000030000000300000000000000CE
:102D00000000000000000000E803000000000000D8
:102D100000000000000000000000000000000000B3
:102D2000000000000000000000000000AA550400A0
:102D30000100000100000000000000000000000091
:102D4000AA55060001C10001C800000000000000F3
:102D5000DFAB0000000000007E0542000000EF7EB7
:102D60000544000000EF000000A24A04000000003B
:0400000500000155A1
:00000001FF
