:020000040000FA
:1000000048040020550100005D0100005F01000070
:1000100061010000630100006501000000000000B4
:100020000000000000000000000000006701000068
:1000300069010000000000006B010000010B0000DE
:100040006F0100006F0100006F0100006F010000F0
:100050006F0100006F0100006F0100006F010000E0
:100060006F0100006F0100006F0100006F010000D0
:100070006F0100006F0100006F0100006F010000C0
:100080006F0100006F0100006F0100006F010000B0
:100090006F0100006F0100006F0100006F010000A0
:1000A0006F0100006F010000000000006F01000000
:1000B0006F0100006F0100006F0100006F01000080
:1000C0006F0100006F0100006F0100006F01000070
:1000D0006F010000000000000000000000000000B0
:1000E0000000000039020000650200006F010000FE
:1000F0006F0100006F0100006F010000390C00006B
:100100006F010000A50B00006F0100006F010000EF
:100110006F0100006F010000000000006F0100008F
:100120006F0100006F0100006F0100006F0100000F
:100130006F0100006F0100006F010000000000006F
:1001400000000000000000000000000000000000AF
:100150006F0100000648804706480047FEE7FEE7BB
:10016000FEE7FEE7FEE7FEE7FEE7FEE7FEE7FEE767
:10017000050B000079010000DFF80CD000F018F842
:1001800000480047AD0F00004804002040EA01038A
:100190009B0703D009E008C9121F08C0042AFAD23D
:1001A00003E011F8013B00F8013B521EF9D2704701
:1001B000064C074D06E0E06840F0010394E80700B4
:1001C00098471034AC42F6D3FFF7DAFFFC13000077
:1001D0001C1400002DE9F0479146164A4FF0FF0A23
:1001E00002EBC005002200240AFA02F0234608426E
:1001F00019D04FF0010C00200CFA02FC4FF00F0850
:1002000021FA00F616EA0C0F06D0860008FA06F767
:100210003C4309FA06F73B43401C0828F0D3286802
:10022000A0431843286008322D1D082ADBDDBDE8F5
:10023000F087000020200240084910B50878401CD3
:10024000C0B20870072801D10020087000F084F9BE
:10025000BDE81040024800F017B80000030000207D
:1002600000600740064810B50178491C0170002065
:1002700000F054F9BDE81040024800F005B8000055
:100280000200002000700740416821F00101416038
:10029000BFF34F8F70470029016802D041F004017D
:1002A00001E021F00401016070470029016802D0DB
:1002B00041F0010101E021F0010101607047C160DE
:1002C000704781607047000070B5124E0446706B35
:1002D000850F00F023F82060012D05D00E48022D77
:1002E00002D0032D00D000206060316AC840A060B9
:1002F0003168C1F3015120FA01F1E160B16AC1F343
:100300000241072902D0C840206170BD0621B0FB20
:10031000F1F0F9E70080084000127A000C49D1F8AA
:10032000A400002813D0086A0A48D1F8FC13012958
:100330000DD0094A9169C1F3C55101B940219269B3
:10034000C2F3415301229A40B0FBF2F04843704798
:100350000000104300127A000080084000B585B00C
:100360006846FFF7B1FF039805B000BDF0B5074F31
:100370007C6AFD6A3E6B84438D43964313B104430C
:100380000D4316437C62FD623E63F0BD0080084071
:10039000002A026801D00A4300E08A4302607047E5
:1003A000002A426901D00A4300E08A434261704753
:1003B000002A426801D00A4300E08A434260704745
:1003C00042B1012A09D082688A438260C2688A43A6
:1003D000C260704782680A43F7E7C2680A43C26096
:1003E00082688A43826070470AB1416270478162C5
:1003F000704700002DE9F04705460126002400F073
:100400009DF8DFF87C900027C9F80070284600F0BE
:100410009FFDDFF86C80A8F10808C8F80070DFF8CD
:1004200064A0194DD5F89003012825D100F085FD71
:10043000D5F8900301281FD1641CE4B200F07DFDC3
:100440009AF80000844213D101264446C8F800609F
:1004500000F018FDC9F80070276000F063FDD5F8C2
:1004600090030128FBD02660BDE8F04700F0F4BC03
:10047000D5F890030128FBD0002ED3D1BDE8F0873A
:100480000804644304000020000068432DE9F041A3
:1004900005461348465D103030F815400D38475D6D
:1004A000193050F82680304600F0FEFC3A462146CE
:1004B0003046FFF78FFE284600F014F8214602224E
:1004C0004046FFF77DFF214601224046FFF768FFC7
:1004D00021464046BDE8F0410122FFF759BF000028
:1004E000AC1300000549054A103A31F81010105CB1
:1004F0001C3252F82000416270470000BC1300001B
:100500000549054A103A31F81010105C1C3252F8B7
:100510002000816270470000BC13000006490A5C9D
:100520001C3151F822100A6A034B103333F81000C3
:1005300042400A6270470000AC13000005490120E8
:100540000860091D08600349002010310860091D7A
:100550000860704700046443F0B52848D0F8B82319
:100560002749A1F121073B7811F8234042EA4402D0
:1005700001F82320D0F8BC2301EB83014C7842EA38
:1005800044024A70D0F8B0238C7842EA44028A7060
:10059000D0F8B403CA7840EA4200C87000207A1C40
:1005A0000546012602EB83040A5C5FEA027C03D065
:1005B000D243120702D002E0255400E02654401C2A
:1005C000C0B20428F0D35B1C0E4A13F0030038704D
:1005D00002F104010AD00B1D012809D0111F0228C5
:1005E00009D0032801D10E601560F0BD166003E04C
:1005F0000E601D60F0BD1E600D60F0BD0000604328
:10060000270000202404604300F01F0201219140D4
:100610004009800000F1E020C0F80011704700F0B0
:100620001F02012191404009800000F1E020C0F844
:10063000001170470D4803680D4A11688B4214D0B1
:100640000C4B0068491C184401F07F0110F8010CA4
:100650001160462805D0472805D0532805D100F061
:10066000B9BD00F0C1B900F003BE704744000020DE
:10067000400000202C0100202DE9F05F0022012124
:100680000220FFF7A7FD022100220846FFF7A2FD86
:10069000002204210220FFF79DFD002208210220F4
:1006A000FFF798FD002210210220FFF793FD0022A2
:1006B00020210220FFF78EFD002240210220FFF7BB
:1006C00089FD002280210220FFF784FDBF4C00221B
:1006D00001212046FFF75CFE002202212046FFF7A1
:1006E00057FE002204212046FFF752FE0022082177
:1006F0002046FFF74DFE002210212046FFF748FE5E
:10070000002220212046FFF743FE00224021204600
:10071000FFF73EFE002280212046FFF739FE00222F
:1007200001212046FFF74CFE002202212046FFF760
:1007300047FE002204212046FFF742FE0022082146
:100740002046FFF73DFE002210212046FFF738FE2D
:10075000002220212046FFF733FE002240212046C0
:10076000FFF72EFE002280212046FFF729FE0122FE
:1007700011462046FFF71CFE012202212046FFF70A
:1007800017FE012204212046FFF712FE0122082154
:100790002046FFF70DFE012210212046FFF708FE3C
:1007A000012220212046FFF703FE0122402120469E
:1007B000FFF7FEFD012280212046FFF7F9FD012110
:1007C00000220846FFF706FD002202210120FFF764
:1007D00001FD002204210120FFF7FCFC002208217A
:1007E0000120FFF7F7FC002210210120FFF7F2FCA7
:1007F000002220210120FFF7EDFC754C012211465B
:100800002046FFF7C5FD012202212046FFF7C0FD6B
:10081000012204212046FFF7BBFD012208212046CA
:10082000FFF7B6FD012210212046FFF7B1FD01229E
:1008300020212046FFF7ACFD00224FF480442146E2
:100840001046FFF7C7FC0022650029461046FFF757
:10085000C1FC0022A61031461046FFF7BBFC002267
:10086000671039461046FFF7B5FC00224FF4806848
:1008700041461046FFF7AEFC00224FF4006949469E
:100880001046FFF7A7FC00224FF4807A514610462D
:10089000FFF7A0FC00224FF4007B59461046FFF7FB
:1008A00099FC002221464B48FFF772FD00222946A1
:1008B0004848FFF76DFD002231464648FFF768FDC6
:1008C000002239464348FFF763FD01224146414873
:1008D000FFF75EFD012249463E48FFF759FD012220
:1008E00051463C48FFF754FD012259463948FFF76D
:1008F0004FFD002221463748FFF762FD00222946BE
:100900003448FFF75DFD002231463248FFF758FDBD
:10091000002239462F48FFF753FD012221462D487A
:10092000FFF746FD012229462A48FFF741FD012233
:1009300031462848FFF73CFD012239462548FFF79C
:1009400037FD002280210320FFF744FC0122802193
:100950002148FFF71DFD0020FFF798FD2A20FFF733
:1009600053FE1E4C206843F69821B0FBF1F01C4D5D
:1009700000EB80012846FFF7A2FC00212846FFF784
:10098000A0FC01212846FFF790FC01212846FFF733
:1009900082FC2920FFF738FE206842F21071B0FB7C
:1009A000F1F0104C00EB80012046FFF788FC00219D
:1009B0002046FFF786FC01212046FFF776FC204603
:1009C000BDE8F05F0121FFF766BC000000400B406E
:1009D00000200B4000000B4000600B40A8000020EE
:1009E000007007400060074070B5FFF7A7FD13488F
:1009F00001250560124CD4F89C03012803D100F0B6
:100A00002BFA00F080FAD4F894030C4A0023083A39
:100A1000111D30B913600D60D4F894030028FBD089
:100A20001560D4F88003002806D10B601560D4F857
:100A300080030028FBD00D6070BD000008046443F3
:100A4000000068432DE9F05F054601260024FFF70A
:100A500075FDDFF89CA0A0464346CAF800802846F2
:100A600000F076FADFF88890A9F10809C9F800309B
:100A700000F049FA1F4FDFF880B0204DD5F8900301
:100A8000012831D100F04EFAD5F8900301282BD17E
:100A9000012280213846FFF7A7FCD5F890030128F2
:100AA000FBD0002280213846FFF79EFC641C9BF897
:100AB0000000E4B2844217D101244E46C9F8004038
:100AC00000F0E0F9CAF80040C6F800800848001FAE
:100AD000046000F027FAD5F890030128FBD03460B9
:100AE000BDE8F05F00F0B8B9002EC7D1BDE8F09FB7
:100AF0000804644300600B400400002000006843C9
:100B00007047000014480121C0F80013134AC2F8CE
:100B1000A810D2F80831002BFBD0002313624FF04D
:100B200010638361C2F8A410D2F80431002BFBD00B
:100B30000B4AD2F8003223F00703DB1CC2F8003264
:100B40000162426822F00302521C4260426BB1EB28
:100B5000927FFBD1704700000080084000001043E6
:100B60000000084070B50E4D4FF4F8144FF480416A
:100B700001232A462046FFF7F9FB4FF48A4101235F
:100B80002A462046FFF7F2FB06220C210020FFF741
:100B900021FBBDE87040062211020220FFF71ABBBC
:100BA000400003002DE9F04120488168204D89076D
:100BB0001ED569692A69914204D10022022100F000
:100BC000A1F815E01B4E002407462869315C384621
:100BD00000F0F4F8287C401C00F07F002861012020
:100BE000FFF780FC68692969884201D0641CECD059
:100BF0004FF080408168490716D5E968AA68491C0A
:100C000001F07F0191420FD000F0CBF80949EA686A
:100C100080398854E868401C00F07F00E860BDE837
:100C2000F0410020FFF76CBCBDE8F08100100040EF
:100C300038000020AC0100202DE9F0414FF0804643
:100C4000B0681F4D80071ED568682968884205D1A5
:100C500000220221304600F055F814E0194F00241C
:100C60003046795C00F0AAF82878401C00F07F003C
:100C700028600020FFF736FC68682968884202D0A7
:100C8000641C802CECD3B1683046490716D5E9685E
:100C9000AA68491C01F07F0191420FD000F081F851
:100CA0000849EA6880318854E868401C00F07F00F9
:100CB000E860BDE8F0410020FFF722BCBDE8F0810C
:100CC00038000020AC000020C2680A43C2607047B0
:100CD00070B505460C46C88889882A690843218969
:100CE00022F01F02114308432861686A618920F0DD
:100CF000030008436862FFF731FB2168B0FBF1F0A5
:100D0000A86370BD002A426801D00A4300E08A430C
:100D10004260704770B515460446FFF7D9FF0621BB
:100D20002046FFF7D1FF012D05D0A826022D0BD0BC
:100D3000032D10D025E00021204600F041F80121CC
:100D4000204600F043F81CE00021204600F023F884
:100D5000012211460DE00021204600F031F801216A
:100D6000204600F033F80021204600F014F801225C
:100D70000F212046FFF7C6FF26620121204600F022
:100D800013F8B4F1804F04D03120BDE87040FFF774
:100D900046BC2F20F9E7C26822F0C0020A43C260B5
:100DA0007047006880B270470029C16802D041F4E2
:100DB000007101E021F40071C1607047016070476B
:100DC000C26822F030020A43C26070470029C1683D
:100DD00002D041F4807101E021F48071C16070475C
:100DE0002DE9F047012700253B4630B10322B0FB37
:100DF000F2F402FB140414B102E0012404E0032421
:100E0000012901D1641CE4B2114900200860A1F15C
:100E10000409C9F80000A9F1040198460B600D4EC1
:100E2000D6F8840301280FD100F087F8D6F88403A0
:100E30000128FBD06D1CEDB2A54205D100F067F88A
:100E4000C9F80080BDE8F087002FE9D1FAE700007B
:100E5000080464430000684310B508480024046097
:100E6000064B01201B1D186000F05CF80448D0F808
:100E70009C130129FBD01C6010BD000010046443CA
:100E800000006843064B012018600022181D026014
:100E90000448D0F898130129FBD01A60704700006D
:100EA00010046443000068431CB500220092012333
:100EB00001920DF800309DF80010104661F31040CB
:100EC0009DF8011061F351409DF8021061F39240CA
:100ED0009DF8031061F3D3409DF8041061F31450A2
:100EE0009903FFF743FA1CBD02E008C8121F08C1AE
:100EF000002AFAD170477047002001E001C1121F9B
:100F0000002AFBD170476420401EFDD270470021AB
:100F10004CF250320020401C9042FCD3491C0C295A
:100F2000F8D3704700214CF250320020401C904210
:100F3000FCD3491C1429F8D37047002144F62062E1
:100F40000020401C9042FCD3491CF9D0704700009F
:100F5000421E0A49022A01D8012003E0021F022A88
:100F600002D8022008707047C21F022A01D803204D
:100F7000F8E70A380228F6D80420F3E70400002036
:100F800010B504460121FFF72BFF2046FFF732FA88
:100F9000FFF72AFD00210846FFF722FF0120FFF797
:100FA00051FDBDE81040FFF71FBD00000EB5FFF773
:100FB000D9FD4FF4614000900120ADF804000020FD
:100FC000ADF80800ADF80600ADF80A000322694646
:100FD0004FF08040FFF79EFE032269460748FFF767
:100FE00099FEFFF749FBFFF7A9FA05484178007819
:100FF00000F05AF8FFF71EFBFCE70000001000406D
:10100000000000202DE9F041044601273AE0224883
:10101000234A04EB44050378204802EB450201789B
:101020004D1CB3FBF5F605FB1635B3FBF1F08E1C3A
:10103000B3FBF6FC01FB103006FB1C36C91CB3FBEE
:10104000F1FC303030353036C0B201FB1C3150700D
:10105000EDB29570F6B23031D670C9B2117100EBB5
:101060004002C2EBC01001EBC00064214D4306EB0F
:10107000860105EB410108440A490004000C21F8EF
:10108000140001D1002FC2D1204600F077F820468D
:10109000BDE8F04100F0C4B80200002003000020C9
:1010A000580000202C02002070B586B0044614229F
:1010B00026A16846FFF76AF8C4F10C00C5B2012109
:1010C0002748FFF7F2F801212648FFF7EEF82648F7
:1010D0002649294A00786B46C0F10C0008700A20A6
:1010E000B4FBF0F130318DF80510B4FBF0F100FBEA
:1010F000114130318DF80610B5FBF0F130318DF82B
:101100000E10B5FBF0F100FB1150194930308DF88D
:101110000F000D68174900200C68641C04F07F0460
:10112000AC4207D01C5C0E6894550C68641C04F03B
:101130007F040C60401CC0B21128EDD302210122B3
:101140004807FFF7DFFD06B070BD000046554C4C68
:101150003A00000A454D5054593A00000A00000078
:1011600000700740006007400000002001000020E0
:10117000380000203C000020AC000020F0B4114AF0
:10118000124C00EB400013680F4A114D012104EB93
:1011900040041068401C00F07F00984207D0605C5B
:1011A0001668A8551068401C00F07F001060491CAC
:1011B000C9B20629EDD3F0BC012202214807FFF78E
:1011C000A1BD0000380000203C0000205800002095
:1011D000AC00002070B5002401210E480B4601EB45
:1011E000410210F812501DB90C4600F812300D21C2
:1011F000491CC9B20D29F2D307490878401CC0B276
:10120000087006490978FFF74FFF2046BDE8704097
:10121000FFF7F8BE58000020000000200100002069
:1012200010B5044600210846FFF7DAFD0120FFF75C
:10123000E1F80D49D1F8940358B90C4A0120106027
:101240000A4B0022083B1A60D1F89423002AFBD0F5
:10125000186000212046FFF7C3FD2046FFF7F2FB90
:10126000BDE81040FFF7C0BB0000684308046443BA
:101270002DE9F04F87B018223CA16846FEF786FFA3
:101280000024DFF80081404FDFF800A10126254649
:10129000E9464FF0804B3868401C00F07F01D8F8D9
:1012A0000000814209D019F805103A680AF80210C6
:1012B0003868401C00F07F00386001220221584647
:1012C000FFF720FD6D1CEDB2162DE4D33049314BF4
:1012D000314F324D002E45D00A68186882420BD03B
:1012E0000A683A4412F8012C25F81420641C401CAA
:1012F00000F07F00E4B21860042CEBD12888E98864
:1013000000EB4002C2EBC01001EBC0026988642010
:101310004143A888DFF8849000EB800001EB400097
:10132000104400241E4F1F4EDFF87CA085B2A0465B
:1013300009F1080937F81400A8420FD104EB440260
:1013400009F812803078401EC0B230709AF8001050
:10135000FFF7AAFE2046FFF713FE0D24641CE4B23B
:101360000D2CE7D307B0BDE8F08F0000506C65612D
:10137000736520496E7075742050617373776F7256
:10138000640A0000380000203C000020AC0000206F
:1013900044000020400000202C01002050000020CC
:1013A0002C020020000000200100002001040000A9
:1013B00000000204040100000F0102000800800088
:1013C000000400800200040000000B4000200B40DD
:1013D00000400B4000600B4000800B4000000040CC
:1013E0000000040006000000080006000010004095
:1013F0000200000206000200000406001C140000A7
:1014000000000020AC000000E80E0000C81400003E
:10141000AC0000209C030000F80E0000000C00014E
:1014200000000001010101010101010101010101AF
:10143000010101010101010101010101010101019C
:10144000010101FFFFFFFFFFFFFFFFFFFFFFFFFFA6
:10145000FFFFFF000000000000000000000000008F
:10146000000000000000000000000000000000007C
:101470000000000000000000000A00000000000A58
:1014800000000000000A00000000000A0000000048
:10149000000A00000000000A00000000000A00002E
:1014A0000000000A00000000000A00000000000A1E
:1014B00000000000000A00000000000A0000000018
:0814C000000A000000A24A042A
:0400000500000155A1
:00000001FF
