:020000040000FA
:100000002005002055010000510300004D030000B1
:100010004F03000013020000490A00000000000026
:100020000000000000000000000000006D0400005F
:100030009102000000000000530300006F04000064
:100040006F0100006F0100006F0100006F010000F0
:100050006F0100006F0100006F0100006F010000E0
:100060006F0100006F0100006F0100006F010000D0
:100070006F0100006F0100006F0100006F010000C0
:100080006F0100006F0100006F0100006F010000B0
:100090006F0100006F0100006F0100006F010000A0
:1000A0006F0100006F010000000000006F01000000
:1000B0006F0100006F0100006F0100006F01000080
:1000C0006F0100006F0100006F0100006F01000070
:1000D0006F010000000000000000000000000000B0
:1000E00000000000110200006F0100006F0100001D
:1000F0006F0100006F0100006F0100006F01000040
:100100006F0100006F0100006F0100006F0100002F
:100110006F0100003D0A0000000000006F010000B8
:100120006F0100006F0100006F0100006F0100000F
:100130006F0100006F0100006F010000000000006F
:1001400000000000000000000000000000000000AF
:100150006F0100000648804706480047FEE7FEE7BB
:10016000FEE7FEE7FEE7FEE7FEE7FEE7FEE7FEE767
:100170007104000079010000DFF80CD000F006F8EF
:10018000004800476D0C000020050020064C074D7C
:1001900006E0E06840F0010394E807009847103457
:1001A000AC42F6D3FFF7ECFF840D0000A40D000075
:1001B0002DE9F0479146154A4FF0FF0A02EBC005C2
:1001C000002200240AFA02F02346084217D0002039
:1001D000012797404FF00F0C21FA00F63E4207D05E
:1001E00086000CFA06F809FA06F648EA04043343D6
:1001F000401C0828F0D32868A04318432860083220
:100200002D1D082ADDDDBDE8F0870000202002401A
:100210007047FEE70D4B10B5D3F8A400002804D0BA
:10022000D3F8FC130A4809B1196A10BD094A91694B
:10023000C1F3C55101B9402192691B6AC2F341540F
:100240000122A240B0FBF2F0484310BD0000104371
:1002500000127A0000800840F0B5074F7C6AFD6A02
:100260003E6B84438D43964313B104430D431643C1
:100270007C62FD623E63F0BD0080084003490A686D
:1002800022F4400242EA8050086070470080084033
:1002900070470029016902D041F0010101E021F01D
:1002A000010101617047F0B50B78076D00EB830425
:1002B00004F1400204F1900504F1A0065B00012462
:1002C0009C40E44327400765476D27404765446DE0
:1002D0004F799F403C434465146840F20717BC4384
:1002E000146014684F883C431460CA882A600A89E5
:1002F0003260026D097999400A430265F0BD002120
:100300000170418001714171C180018170470A888B
:10031000C0F888204A88C0F88420026822F440325D
:100320000260026822F08072026002684B681A4321
:10033000026009898167704700214FF6FF724160B2
:10034000028041804FF4807101817047FEE7FEE733
:100350007047704700F058B8F0B50A4FD7F804411D
:10036000D7F80851D7F80C6184438D43964313B1F5
:1003700004430D431643C7F80441C7F80851C7F8B2
:100380000C61F0BD0080084070B50546002100F00A
:1003900034FA084C02460648A1680144284600F099
:1003A00065FAA1680844C0F30800A06070BD0000B1
:1003B0004C0000200C00002010B583884178C288D2
:1003C0000B2B0FD1022422290DD00123202912D07A
:1003D000212907D180F824300A49C161082A00D3B5
:1003E0000822026210BD002AFCD10021C161016215
:1003F00080F8244010BD034980F824400C390B607C
:10040000EAE700001800002010B500214FF48060DA
:1004100001230A46FFF720FFFFF7FCFE1049B0FB5F
:10042000F1F0401EC0B2FFF729FF0E48A0F1900185
:10043000C1F88400883800F05BF90A48543800F0AD
:1004400047F80848903800F027F907494FF40010A2
:10045000C1F800010348BDE81040903800F028B909
:10046000006CDC02DC02002004E000E07047704712
:1004700014480121C0F80013134AC2F8A810D2F89A
:100480000831002BFBD0002313624FF0106383610F
:10049000C2F8A410D2F80431002BFBD00B4AD2F8DA
:1004A000003223F00703DB1CC2F80032016242680D
:1004B00022F00302521C4260426BB1EB927FFBD1EF
:1004C0007047000000800840000010430000084012
:1004D000024941620249016470470000B90300000B
:1004E000890300002DE9F041044600F02BFA05468F
:1004F000800706D5E16C09B1206D8847022000F025
:1005000005F9E8060FD5102000F000F994F8320044
:10051000022808D300F020FA94F8320084F833005F
:10052000032084F8320068074FF0000620D5701EC3
:10053000D4F8847044F8200F26746674207D20F06F
:10054000020020750420A074A66100F001F900F0FB
:100550000BFA0020616E00F059F9386800F0DAF902
:10056000616A203C09B1A06C8847042000F0CEF8F5
:10057000280708D500F0F8F994F8330084F8320021
:10058000082000F0C3F8E8054FF480777AD5002002
:1005900000F02CF90546800522D5204600F03CFAF3
:1005A00084F824602662207810F0600002D02028B1
:1005B00008D103E0204600F084FA03E0216E2046D3
:1005C00001B1884794F82400012817D002281ED0D2
:1005D000002000F06BF94FF40071002000F0CEF81D
:1005E000A8072ED50221002000F0C8F8206A401C80
:1005F00027D094F8240002280FD022E0E088216A56
:10060000814200DD2062204600F01FFAE3E700226D
:100610001146104600F05AF9DDE740220020E1695A
:1006200000F024F9E1690144E161216A081A2062BD
:1006300007D1012084F82400A16A11B1E06A88473B
:10064000A662E80606D5204600F0FFF9102100203A
:1006500000F094F8384600F059F813E0284600F00E
:10066000C5F810F0120F0DD01221284600F086F8C0
:1006700007FA05F000F04AF804EB8500416E09B175
:100680002846884700F05EF900F04CF90546401C0A
:10069000E4D1BDE8F081000004490860022180F83F
:1006A0003210D0F8840000F055B90000040000209A
:1006B00010B5044690F8340000F00101D4F884002D
:1006C00000F05AF994F83200032805D1D4F88810C4
:1006D00011B1D4F88C008847E16B002907D094F859
:1006E0003200062803D1206CBDE81040084710BD39
:1006F0000449016014314160034981600421C160F3
:1007000070470000000D00002000002001498860B3
:100710007047000000800A4005490128086803D09E
:1007200020F400600860704740F40060FAE70000C1
:1007300000800A4005490128086803D020F4806041
:100740000860704740F48060FAE7000000800A40CB
:100750000021202001230A46FFF7FEBD10B500F05E
:100760006DFA016801F00901016010BD10B500F0DB
:1007700065FA016801F02401016010BD10B50C4656
:1007800000F05CFA846010BD10B500F057FA006903
:100790000249C0F30900084410BD000000A00A404F
:1007A00070B5054600F04AFA0446284600F00AF8FB
:1007B0002169C1F3090108440149084470BD0000E2
:1007C00000A00A4010B500F039FA0069C0F3892092
:1007D00010BD10B500F032FA01690068C90002D5F9
:1007E000C0F3800010BDC0F3401010BD10B500F084
:1007F00025FA41688068084010BD10B50C4600F02D
:100800001DFAC068E040C0F3080010BD70B50C468A
:10081000054600F013FA04EBC5014A6802618968D5
:1008200041604FF0FF3181602846BDE8704000F024
:1008300035B82DE9F04116460F46050011D00021CC
:10084000FFF7DBFF0446B04208D828465DB1FFF74A
:100850009BFFE11C8A08394600F0E7F92046BDE815
:10086000F0811021ECE7FFF79BFFF2E72DE9F04163
:1008700015460E46074600F0E1F9044600203DB15A
:100880002A4631463846FFF7D4FF08B9002D03D178
:10089000216801F010012160BDE8F08110B500F081
:1008A000CDF9016801F01901016010BD10B500F02B
:1008B000C5F90421016010BD10B500F0BFF9402159
:1008C0008160026824219143016010BD2DE9F0414F
:1008D000144688460746FFF775FF0646384600F07F
:1008E000ADF9054600213846FFF787FFB44200D82E
:1008F00010B10020BDE8F0813846FFF745FF014602
:10090000E01C8208404600F090F9EC60022028606C
:100910002046EFE702494A6802434A6070470000F8
:1009200000800A400346072101F1080223FA02F081
:10093000C20701D048B27047491E0029F4DC4FF0CD
:10094000FF307047024841688068084070470000E7
:1009500000800A4000F044B80248016841F00C01F0
:100960000160704700800A400248016801F480611C
:100970000160704700800A400246174800B50168D0
:10098000012927D100210160144801684B064FF06E
:10099000FF3108D540F20C430360816010685DF8B8
:1009A00004EBFFF7B7BF40F60C4303608160002003
:1009B000FFF7B2FE1068FFF7ADFF0020FFF7BAFEA9
:1009C000C8210020401C8842FCD301205DF804EBC4
:1009D000FFF7B0BE00BD00000800002000800A4004
:1009E00044F21D1101600849416040F2122181600A
:1009F0000649C162064A1021C0E90C120222826334
:100A0000044AC0E90F217047080001808820009542
:100A100090000186D000019702490A680260496887
:100A20004160704700A00A4003490A6842F480729E
:100A30000A6008617047000000800A400148FFF723
:100A400051BD00004C020020FEE770B504460020B6
:100A5000FFF7B8FE0546206A411C16D094F8241012
:100A6000012912D1A84202D3401B206205E00546AD
:100A700000202062022084F824002A460020E16938
:100A8000FFF724FFE0692844E06170BD10B504461B
:100A90000020607649B1012909D0022910D12079BE
:100AA00000F00F00FFF795FE01E094F83400207687
:100AB00004F11800E06102202062012084F8240083
:100AC00010BD70B5044600880125B0F5A06F4DD06B
:100AD00020DCB0F5807F42D00BDC80283BD0812821
:100AE0003BD0822864D102212046BDE87040FFF748
:100AF000CDBFB0F5817F34D0B0F5407F33D0A0F5C5
:100B00004070023854D1012202212046BDE87040D5
:100B100000F065B8B0F5106F4DD00FDCB0F5D06FB8
:100B20002BD0A0F5C060813843D0A0F58070FF388D
:100B30003ED104F13000C4E9070537E0A0F520609C
:100B400081384AD0802833D1A16D002930D0204689
:100B5000BDE8704008470021C6E70121C4E7002234
:100B600002E00022D0E701220021CEE7A078FFF7C3
:100B70005BFF84F8245005202CE0E07801280FD09A
:100B800002280FD0032813D1A078616981420FD9C0
:100B9000216951F8200000280AD0E061007804E0C3
:100BA000A068FAE7E068E0614088206284F8245099
:100BB00070BD616DC9E7A07884F8300084F82450D6
:100BC000012568B2D4F88410FFF720FE6D1C082DB3
:100BD000F7D3062084F8320070BDE16DB5E770B53B
:100BE0000446012661B1022909D1207910F00F05D0
:100BF00003D082B12846FFF75FFE84F8246070BD01
:100C0000A0780128FBD114F8340F62F3410004F8F6
:100C10001009267070BDA06B0028EED12846FFF7A2
:100C2000A5FD2846FFF79AFDE7E7521E04D450F8C9
:100C3000223041F82230F8E770470000024900EB0B
:100C4000800001EB8000704714800A4002E008C871
:100C5000121F08C1002AFAD170477047002001E036
:100C600001C1121F002AFBD17047000086B0002589
:100C7000FFF770FB4FF48030811002120123FFF761
:100C8000EBFA042220210020FFF792FA1A480068AC
:100C90004FF4FA61B0FBF1F403A8641EFFF74CFBBC
:100CA00045F6BF50ADF80C00144E0495ADF80E504B
:100CB000ADF8145003A93046FFF729FB6846FFF74B
:100CC0001EFB01208DF8000006218DF80400ADF810
:100CD0000210641C04EB44106421B0FBF1F08DF8A9
:100CE0000550ADF8060069463046FFF7DCFA0121F1
:100CF0003046FFF7CEFAFEE70000002000E0064095
:100D00001201100100000040D90408800001010216
:100D10000301000009024B000201008032080B0BA6
:100D2000020202000009040B000102020000051883
:100D30000010010418020205180500010518010041
:100D4000010705850308000009040C00020A0000E1
:100D5000000705060240000007058702400000006A
:100D6000040309040E0348004F004C0054004500E2
:100D70004B00000010035500530042002D005600A8
:100D800043005000A40D0000000000204C000000B3
:100D90004C0C0000F00D00004C000020D4040000BA
:100DA0005C0C000000A24A040000000001000000EA
:100DB0000000000000000000000000000000000033
:100DC00000000000600D0000640D0000740D0000C4
:100DD000300000201A0353004E0030003000300075
:100DE00030003000300031003000300030000000B2
:0400000500000155A1
:00000001FF
