:020000040000FA
:10000000D804002055010000E7020000E3020000D0
:10001000E502000013020000F507000000000000E8
:100020000000000000000000000000001D030000B0
:10003000E102000000000000E90200001F030000D0
:100040006F0100006F0100006F0100006F010000F0
:100050006F0100006F0100006F0100006F010000E0
:100060006F0100006F0100006F0100006F010000D0
:100070006F0100006F0100006F0100006F010000C0
:100080006F0100006F0100006F0100006F010000B0
:100090006F0100006F0100006F0100006F010000A0
:1000A0006F0100006F010000000000006F01000000
:1000B0006F0100006F0100006F0100006F01000080
:1000C0006F0100006F0100006F0100006F01000070
:1000D0006F010000000000000000000000000000B0
:1000E00000000000110200006F0100006F0100001D
:1000F0006F0100006F0100006F0100006F01000040
:100100006F0100006F0100006F0100006F0100002F
:100110006F010000E9070000000000006F0100000F
:100120006F0100006F0100006F0100006F0100000F
:100130006F0100006F0100006F010000000000006F
:1001400000000000000000000000000000000000AF
:100150006F0100000648804706480047FEE7FEE7BB
:10016000FEE7FEE7FEE7FEE7FEE7FEE7FEE7FEE767
:100170002103000079010000DFF80CD000F006F840
:1001800000480047190A0000D8040020064C074D1B
:1001900006E0E06840F0010394E807009847103457
:1001A000AC42F6D3FFF7ECFF780A0000880A0000A3
:1001B0002DE9F0479146154A4FF0FF0A02EBC005C2
:1001C000002200240AFA02F02346084217D0002039
:1001D000012797404FF00F0C21FA00F63E4207D05E
:1001E00086000CFA06F809FA06F648EA04043343D6
:1001F000401C0828F0D32868A04318432860083220
:100200002D1D082ADDDDBDE8F0870000202002401A
:100210007047FEE770B5124E0446706B850F00F014
:1002200023F82060012D05D00E48022D02D0032DA9
:1002300000D000206060316AC840A0603168C1F31E
:10024000015120FA01F1E160B16AC1F302410729CD
:1002500002D0C840206170BD0621B0FBF1F0F9E783
:100260000080084000127A000D4B10B5D3F8A400AE
:10027000002804D0D3F8FC130A4809B1196A10BD4C
:10028000094A9169C1F3C55101B9402192691B6ABC
:10029000C2F341540122A240B0FBF2F0484310BD2A
:1002A0000000104300127A000080084000B585B0BD
:1002B0006846FFF7AFFF039805B000BDF0B5074FE4
:1002C0007C6AFD6A3E6B84438D43964313B10443BD
:1002D0000D4316437C62FD623E63F0BD0080084022
:1002E0007047FEE7FEE7704770470000F0B50A4F21
:1002F000D7F80441D7F80851D7F80C6184438D43EF
:10030000964313B104430D431643C7F80441C7F89D
:100310000851C7F80C61F0BD008008407047704775
:1003200014480121C0F80013134AC2F8A810D2F8EB
:100330000831002BFBD0002313624FF01063836160
:10034000C2F8A410D2F80431002BFBD00B4AD2F82B
:10035000003223F00703DB1CC2F80032016242685E
:1003600022F00302521C4260426BB1EB927FFBD140
:100370007047000000800840000010430000084063
:1003800070B505460C46C88889882A6908432189C2
:1003900022F01F02114308432861686A618920F036
:1003A000030008436862FFF781FF2168B0FBF1F0AA
:1003B000A86370BD0029C16802D041F4007101E05A
:1003C00021F40071C1607047016070470029C16865
:1003D00002D041F4807101E021F48071C160704766
:1003E0002DE9F041044600F0D5F90546800706D511
:1003F000E16C09B1206D8847022000F0CBF8E806D7
:100400000FD5102000F0C6F894F83200022808D367
:1004100000F0C8F994F8320084F83300032084F81F
:10042000320068074FF0000620D5701ED4F88470A3
:1004300044F8200F26746674207D20F00200207599
:100440000420A074A66100F0ABF800F0B3F900201E
:10045000616E00F003F9386800F084F9616A203CAD
:1004600009B1A06C8847042000F094F8280708D54B
:1004700000F0A0F994F8330084F83200082000F06E
:1004800089F8E8054FF480777AD5002000F0D6F897
:100490000546800522D5204600F094F984F82460B2
:1004A0002662207810F0600002D0202808D103E0F6
:1004B000204600F0DCF903E0216E204601B18847B8
:1004C00094F82400012817D002281ED0002000F044
:1004D00015F94FF40071002000F078F8A8072ED528
:1004E0000221002000F072F8206A401C27D094F806
:1004F000240002280FD022E0E088216A814200DD3A
:100500002062204600F077F9E3E70022114610460A
:1005100000F004F9DDE740220020E16900F0CEF8A8
:10052000E1690144E161216A081A206207D10120D2
:1005300084F82400A16A11B1E06A8847A662E8063F
:1005400006D5204600F057F91021002000F03EF8B3
:10055000384600F01FF813E0284600F06FF810F05E
:10056000120F0DD01221284600F030F807FA05F0DE
:1005700000F010F804EB8500416E09B12846884769
:1005800000F008F900F0F6F80546401CE4D1BDE89B
:10059000F0810000014988607047000000800A4037
:1005A0000021202001230A46FFF7A0BE10B500F06D
:1005B0001BFA016801F00901016010BD10B500F0DF
:1005C00013FA016801F02401016010BD10B50C465A
:1005D00000F00AFA846010BD10B500F005FA006959
:1005E0000249C0F30900084410BD000000A00A4001
:1005F00070B5054600F0F8F90446284600F00AF800
:100600002169C1F3090108440149084470BD000093
:1006100000A00A4010B500F0E7F90069C0F3892096
:1006200010BD10B500F0E0F901690068C90002D5FD
:10063000C0F3800010BDC0F3401010BD10B500F035
:10064000D3F941688068084010BD10B50C4600F031
:10065000CBF9C068E040C0F3080010BD70B50C468F
:10066000054600F0C1F904EBC5014A6802618968DA
:1006700041604FF0FF3181602846BDE8704000F0D6
:1006800035B82DE9F04116460F46050011D000217E
:10069000FFF7DBFF0446B04208D828465DB1FFF7FC
:1006A0009BFFE11C8A08394600F095F92046BDE819
:1006B000F0811021ECE7FFF79BFFF2E72DE9F04115
:1006C00015460E46074600F08FF9044600203DB15E
:1006D0002A4631463846FFF7D4FF08B9002D03D12A
:1006E000216801F010012160BDE8F08110B500F033
:1006F0007BF9016801F01901016010BD10B500F02F
:1007000073F90421016010BD10B500F06DF94021AE
:100710008160026824219143016010BD2DE9F04100
:10072000144688460746FFF775FF0646384600F030
:100730005BF9054600213846FFF787FFB44200D831
:1007400010B10020BDE8F0813846FFF745FF0146B3
:10075000E01C8208404600F03EF9EC600220286070
:100760002046EFE702494A6802434A6070470000AA
:1007700000800A400346072101F1080223FA02F033
:10078000C20701D048B27047491E0029F4DC4FF07F
:10079000FF30704702484168806808407047000099
:1007A00000800A400248016841F00C010160704776
:1007B00000800A400248016801F4806101607047CE
:1007C00000800A4002490A68026049684160704737
:1007D00000A00A4003490A6842F480720A60086176
:1007E0007047000000800A400148FFF7F9BD000093
:1007F00000020020FEE770B504460020FFF70AFF64
:100800000546206A411C16D094F82410012912D103
:10081000A84202D3401B206205E00546002020626A
:10082000022084F824002A460020E169FFF776FFC1
:10083000E0692844E06170BD10B504460020607690
:1008400049B1012909D0022910D1207900F00F0007
:10085000FFF7E7FE01E094F83400207604F1180079
:10086000E06102202062012084F8240010BD70B5F0
:10087000044600880125B0F5A06F4DD020DCB0F50E
:10088000807F42D00BDC80283BD081283BD082285F
:1008900064D102212046BDE87040FFF7CDBFB0F51E
:1008A000817F34D0B0F5407F33D0A0F5407002385E
:1008B00054D1012202212046BDE8704000F065B805
:1008C000B0F5106F4DD00FDCB0F5D06F2BD0A0F588
:1008D000C060813843D0A0F58070FF383ED104F16C
:1008E0003000C4E9070537E0A0F5206081384AD020
:1008F000802833D1A16D002930D02046BDE870405A
:1009000008470021C6E70121C4E7002202E00022D7
:10091000D0E701220021CEE7A078FFF75BFF84F843
:10092000245005202CE0E07801280FD002280FD0B9
:10093000032813D1A078616981420FD9216951F848
:10094000200000280AD0E061007804E0A068FAE7FF
:10095000E068E0614088206284F8245070BD616DD9
:10096000C9E7A07884F8300084F82450012568B2E3
:10097000D4F88410FFF772FE6D1C082DF7D3062003
:1009800084F8320070BDE16DB5E770B5044601260C
:1009900061B1022909D1207910F00F0503D082B18D
:1009A0002846FFF7B1FE84F8246070BDA0780128C6
:1009B000FBD114F8340F62F3410004F810092670DB
:1009C00070BDA06B0028EED12846FFF7F7FD284642
:1009D000FFF7ECFDE7E7521E04D450F8223041F84F
:1009E0002230F8E770470000024900EB800001EB7D
:1009F0008000704714800A4002E008C8121F08C136
:100A0000002AFAD170477047002001E001C1121F8F
:100A1000002AFBD1704700000EB500244FF484413A
:100A20004FF4A02001232246FFF748FC0622302184
:100A30000020FFF7BDFB4FF4E13000900120ADF83E
:100A40000400ADF80840ADF80640ADF80A40094C86
:100A500069462046FFF794FC01212046FFF7B6FCCB
:100A600001212046FFF7A6FC05212046FFF7ACFC3C
:100A7000FAE7000000000440880A0000000000209F
:080A8000D8040000080A000080
:0400000500000155A1
:00000001FF
