:020000040000FA
:10000000E0040020550100004F0500004B050000F2
:100010004D0500000F050000FD0900000000000074
:100020000000000000000000000000008505000046
:100030004905000000000000510500008705000090
:100040006F0100006F0100006F0100006F010000F0
:100050006F0100006F0100006F0100006F010000E0
:100060006F0100006F0100006F0100006F010000D0
:100070006F0100006F0100006F0100006F010000C0
:100080006F0100006F0100006F0100006F010000B0
:100090006F0100006F0100006F0100006F010000A0
:1000A0006F0100006F010000000000006F01000000
:1000B0006F0100006F0100006F0100006F01000080
:1000C0006F0100006F0100006F0100006F01000070
:1000D0006F010000000000000000000000000000B0
:1000E000000000000D0500006F0100006F0100001E
:1000F0006F0100006F0100006F0100006F01000040
:100100006F0100006F0100006F0100006F0100002F
:100110006F010000F1090000000000006F01000005
:100120006F0100006F0100006F0100006F0100000F
:100130006F0100006F0100006F010000000000006F
:1001400000000000000000000000000000000000AF
:100150006F0100000648804706480047FEE7FEE7BB
:10016000FEE7FEE7FEE7FEE7FEE7FEE7FEE7FEE767
:100170008905000079010000DFF80CD000F036F9A5
:1001800000480047210C0000E00400202DE9FE4F4C
:1001900081EA030404F0004421F0004100944FF090
:1001A000000B23F0004350EA01045ED052EA03043E
:1001B0005BD0C3F30A54C1F30A552C44A4F2F334C0
:1001C0000194A0FB0254C1F3130141F48011C3F365
:1001D000130343F4801301FB024400FB034E840A23
:1001E000970A44EA815447EA8357A4FB07680295BB
:1001F0008D0A05FB07854FEA932C04FB0C54270559
:10020000029D4FEA065847EA1637B5EB08056EEB34
:10021000070C870E920E47EA811742EA8312A7FB6A
:100220000201B6EB0B0164EB00042B0D43EA0C3327
:100230005E1844EB1C50DA465146E7FB0201C5F359
:1002400013044FEA0B3343EA14534FEA0432019C80
:1002500043EA0603A4F10C040294009CCDE900B427
:1002600000F075F803B0BDE8F08F00200146F9E713
:100270000EB540F2334102910021CDE900110A464A
:100280000B4600F064F803B000BD01F0004330B449
:1002900021F0004150EA010206D00A0DA2F5607279
:1002A000C1F31301002A02DC30BC00207047440F68
:1002B00044EAC104C100E01830BC00EBC250AFF307
:1002C00000800029A8BF7047401C490008BF20F0EB
:1002D0000100704710B4B0FA80FC00FA0CF050EA4C
:1002E000010404BF10BC704749B1CCF1200421FACD
:1002F00004F411FA0CF118BF012121430843A3EBC8
:100300000C01CB1D4FEA00614FEA102042BF0020D4
:1003100010BC704700EBC35010440029A4BF10BCB0
:100320007047401C490008BF20F0010010BC704716
:1003300010B5141E73F1000408DA401C41F10001ED
:1003400092185B411A4301D120F0010010BD2DE944
:10035000F04D92469B4611B1B1FA81F202E0B0FA3B
:1003600080F22032904600F053F804460F4640EAEF
:100370000A0041EA0B0153465A46084313D011467E
:1003800053EA010019D0C8F14002504600F04FF87E
:1003900005460E4650465946424600F039F8084395
:1003A00005D0012004E020463946BDE8F08D00204C
:1003B000054346EAE0762C4337430A986305E40A8E
:1003C000A0EB08000022FD0A44EA47540A3002D597
:1003D00000200146E9E7010510196941DDE90845FA
:1003E00000196941BDE8F04DA2E70000064C074D39
:1003F00006E0E06840F0010394E8070098471034F5
:10040000AC42F6D3FFF7BCFEA40C0000C40C000005
:10041000202A04DB203A00FA02F1002070479140C4
:10042000C2F1200320FA03F3194390407047202AB9
:1004300004DB203A21FA02F00021704721FA02F38E
:10044000D040C2F12002914008431946704710B5D0
:1004500000EB8104236722F0030318440369920729
:10046000D20E1F249440A34391400B43036110BD5F
:1004700010B56FF0FF0404EB02225B1E42EA034258
:100480000A43826010BD0A0FC0F80021C0F80411B1
:1004900070470029D0F8041102D041F0010101E0B9
:1004A00021F00101C0F80411704700002DE9F04768
:1004B0009146154A4FF0FF0A02EBC00500220024C6
:1004C0000AFA02F02346084217D00020012797407D
:1004D0004FF00F0C21FA00F63E4207D086000CFACE
:1004E00006F809FA06F648EA04043343401C0828D3
:1004F000F0D32868A0431843286008322D1D082A2D
:10050000DDDDBDE8F0870000202002407047FEE7F7
:10051000F0B5074F7C6AFD6A3E6B84438D4396437A
:1005200013B104430D4316437C62FD623E63F0BD8C
:100530000080084003498A6A22F4E02242EA00402F
:1005400088627047008008407047FEE7FEE770470A
:1005500070470000F0B50A4FD7F80441D7F80851AA
:10056000D7F80C6184438D43964313B104430D4384
:100570001643C7F80441C7F80851C7F80C61F0BD2D
:10058000008008407047704714480121C0F80013EC
:10059000134AC2F8A810D2F80831002BFBD0002370
:1005A00013624FF010638361C2F8A410D2F80431D3
:1005B000002BFBD00B4AD2F8003223F00703DB1CE0
:1005C000C2F800320162426822F00302521C42600B
:1005D000426BB1EB927FFBD1704700000080084076
:1005E00000001043000008402DE9F041044600F0EF
:1005F000D5F90546800706D5E16C09B1206D88471D
:10060000022000F0CBF8E8060FD5102000F0C6F865
:1006100094F83200022808D300F0C8F994F83200A8
:1006200084F83300032084F8320068074FF0000696
:1006300020D5701ED4F8847044F8200F2674667498
:10064000207D20F0020020750420A074A66100F037
:10065000ABF800F0B3F90020616E00F003F93868E0
:1006600000F084F9616A203C09B1A06C884704203D
:1006700000F094F8280708D500F0A0F994F83300AA
:1006800084F83200082000F089F8E8054FF48077FC
:100690007AD5002000F0D6F80546800522D5204600
:1006A00000F094F984F824602662207810F060004D
:1006B00002D0202808D103E0204600F0DCF903E056
:1006C000216E204601B1884794F82400012817D0F4
:1006D00002281ED0002000F015F94FF40071002010
:1006E00000F078F8A8072ED50221002000F072F85B
:1006F000206A401C27D094F8240002280FD022E062
:10070000E088216A814200DD2062204600F077F90E
:10071000E3E700221146104600F004F9DDE740222D
:100720000020E16900F0CEF8E1690144E161216A4D
:10073000081A206207D1012084F82400A16A11B1AF
:10074000E06A8847A662E80606D5204600F057F919
:100750001021002000F03EF8384600F01FF813E0AA
:10076000284600F06FF810F0120F0DD01221284625
:1007700000F030F807FA05F000F010F804EB8500FF
:10078000416E09B12846884700F008F900F0F6F8F4
:100790000546401CE4D1BDE8F081000001498860B5
:1007A0007047000000800A400021202001230A46F3
:1007B000FFF7D0BE10B500F01BFA016801F0090187
:1007C000016010BD10B500F013FA016801F02401BA
:1007D000016010BD10B50C4600F00AFA846010BD2F
:1007E00010B500F005FA00690249C0F30900084499
:1007F00010BD000000A00A4070B5054600F0F8F9F1
:100800000446284600F00AF82169C1F309010844AA
:100810000149084470BD000000A00A4010B500F076
:10082000E7F90069C0F3892010BD10B500F0E0F9C8
:1008300001690068C90002D5C0F3800010BDC0F393
:10084000401010BD10B500F0D3F941688068084031
:1008500010BD10B50C4600F0CBF9C068E040C0F305
:10086000080010BD70B50C46054600F0C1F904EB58
:10087000C5014A680261896841604FF0FF318160BB
:100880002846BDE8704000F035B82DE9F041164625
:100890000F46050011D00021FFF7DBFF0446B042F0
:1008A00008D828465DB1FFF79BFFE11C8A0839464E
:1008B00000F095F92046BDE8F0811021ECE7FFF744
:1008C0009BFFF2E72DE9F04115460E46074600F082
:1008D0008FF9044600203DB12A4631463846FFF7DD
:1008E000D4FF08B9002D03D1216801F01001216067
:1008F000BDE8F08110B500F07BF9016801F0190145
:10090000016010BD10B500F073F90421016010BD45
:1009100010B500F06DF940218160026824219143F7
:10092000016010BD2DE9F041144688460746FFF7E7
:1009300075FF0646384600F05BF90546002138464B
:10094000FFF787FFB44200D810B10020BDE8F08166
:100950003846FFF745FF0146E01C8208404600F09C
:100960003EF9EC60022028602046EFE702494A6821
:1009700002434A607047000000800A400346072196
:1009800001F1080223FA02F0C20701D048B2704711
:10099000491E0029F4DC4FF0FF30704702484168DF
:1009A000806808407047000000800A4002480168E3
:1009B00041F00C010160704700800A400248016864
:1009C00001F480610160704700800A4002490A68B2
:1009D000026049684160704700A00A4003490A6804
:1009E00042F480720A6008617047000000800A408B
:1009F0000148FFF7F9BD000008020020FEE770B5CE
:100A000004460020FFF70AFF0546206A411C16D065
:100A100094F82410012912D1A84202D3401B20626D
:100A200005E0054600202062022084F824002A46C2
:100A30000020E169FFF776FFE0692844E06170BDBE
:100A400010B504460020607649B1012909D0022979
:100A500010D1207900F00F00FFF7E7FE01E094F8D5
:100A60003400207604F11800E061022020620120A9
:100A700084F8240010BD70B5044600880125B0F547
:100A8000A06F4DD020DCB0F5807F42D00BDC8028F9
:100A90003BD081283BD0822864D102212046BDE88A
:100AA0007040FFF7CDBFB0F5817F34D0B0F5407F07
:100AB00033D0A0F54070023854D1012202212046E3
:100AC000BDE8704000F065B8B0F5106F4DD00FDC98
:100AD000B0F5D06F2BD0A0F5C060813843D0A0F521
:100AE0008070FF383ED104F13000C4E9070537E0DB
:100AF000A0F5206081384AD0802833D1A16D00292B
:100B000030D02046BDE8704008470021C6E70121EB
:100B1000C4E7002202E00022D0E701220021CEE754
:100B2000A078FFF75BFF84F8245005202CE0E078E4
:100B300001280FD002280FD0032813D1A0786169B3
:100B400081420FD9216951F8200000280AD0E061C4
:100B5000007804E0A068FAE7E068E061408820627D
:100B600084F8245070BD616DC9E7A07884F8300026
:100B700084F82450012568B2D4F88410FFF772FE7F
:100B80006D1C082DF7D3062084F8320070BDE16D8E
:100B9000B5E770B50446012661B1022909D1207973
:100BA00010F00F0503D082B12846FFF7B1FE84F89C
:100BB000246070BDA0780128FBD114F8340F62F3D3
:100BC000410004F81009267070BDA06B0028EED11A
:100BD0002846FFF7F7FD2846FFF7ECFDE7E7521E32
:100BE00004D450F8223041F82230F8E77047000072
:100BF000024900EB800001EB8000704714800A403E
:100C000002E008C8121F08C1002AFAD170477047D5
:100C1000002001E001C1121F002AFBD17047000033
:100C20004FF480418A0288000123FFF771FC0620FF
:100C3000FFF780FC022201210020FFF737FC154C52
:100C400001231A4602212046FFF712FC002301224D
:100C500019462046FFF7FBFB21032046FFF713FC54
:100C600001212046FFF715FC0B4DDFF830800C4EBC
:100C70004FF06637D4F8B000C0F30B002880FFF7C0
:100C8000F7FA3A464346FFF781FAFFF7FEFA30607B
:100C9000F0E70000000001400400002066664A3FC3
:100CA00000000020C40C000000000020080000002C
:100CB000000C0000CC0C000008000020D80400004C
:0C0CC000100C000000000000000000000C
:0400000500000155A1
:00000001FF
