:020000040000FA
:10000000B006002055010000D91300001D100000AB
:1000100091120000650900004D2100000000000061
:10002000000000000000000000000000611500005A
:10003000F50D0000000000002D1500006D0100000E
:100040006F0100006F0100006F0100006F010000F0
:100050006F0100006F0100006F0100006F010000E0
:100060006F0100006F0100006F0100006F010000D0
:100070006F0100006F0100006F0100006F010000C0
:100080006F0100006F0100006F0100006F010000B0
:100090006F0100006F0100006F0100006F010000A0
:1000A0006F0100006F010000000000006F01000000
:1000B0006F0100006F0100006F0100006F01000080
:1000C0006F0100006F0100006F0100006F01000070
:1000D0006F010000000000000000000000000000B0
:1000E00000000000DD0700006F0100006F0100004C
:1000F0006F0100006F0100006F010000A1170000F8
:100100005D1800006F0100006F0100006F0100002A
:100110006F010000AD1E0000000000006F01000034
:100120006F0100006F0100006F0100006F0100000F
:100130006F0100006F0100006F010000000000006F
:1001400000000000000000000000000000000000AF
:100150006F0100000648804706480047FEE7FEE7BB
:10016000FEE7FEE7FEE7FEE7FEE7FEE7FEE7FEE767
:10017000DD15000079010000DFF80CD000F072FA04
:100180000048004715240000B00600202DE9FE4F6E
:10019000804681EA0300C00F0C46009021F0004128
:1001A00023F00045B8EB0200A94105D240462146A4
:1001B00090461C460B46024623F00040104347D0B1
:1001C000270DC7F30A00C3F30A510290401A0190A9
:1001D00040286BDAC3F3130040F4801B009892466A
:1001E00020B10023D2EB030A63EB0B0B01985946B5
:1001F000C0F14002504600F0A7F906460D465046B1
:100200005946019A00F0BFF910EB08006141002443
:1002100087EA115284EAE7731A4340D0009A62B326
:10022000019A012A4FEA075215DC001B61EB02011B
:100230004FF0004202EA0752CDE90042001C41F5AE
:10024000801132462B4600F0BFF903B0BDE8F08FB5
:1002500040462146F9E7001B61EB0201001C41F515
:10026000801300185B412018A2F5001747EB03012B
:1002700040EAD570B6196D4111E06D084FEA3606B7
:1002800045EAC0754FEA0752001B61EB0201001CF2
:1002900041F5801149084FEA3000001951413246BA
:1002A0002B4603B0BDE8F04F00F07FB90098012263
:1002B00040000023D0EB020263EBE073009821467C
:1002C0004FEAE074B8EB000061EB0401E9E783F06A
:1002D00000435BE781F0004158E72DE9FE4F81EADA
:1002E000030404F0004421F0004100944FF0000B9F
:1002F00023F0004350EA01045ED052EA03045BD0CD
:10030000C3F30A54C1F30A552C44A4F2F334019404
:10031000A0FB0254C1F3130141F48011C3F3130392
:1003200043F4801301FB024400FB034E840A970A46
:1003300044EA815447EA8357A4FB076802958D0A73
:1003400005FB07854FEA932C04FB0C542705029DFF
:100350004FEA065847EA1637B5EB08056EEB070C6F
:10036000870E920E47EA811742EA8312A7FB020129
:10037000B6EB0B0164EB00042B0D43EA0C335E1863
:1003800044EB1C50DA465146E7FB0201C5F3130467
:100390004FEA0B3343EA14534FEA0432019C43EA19
:1003A0000603A4F10C040294009CCDE900B400F013
:1003B0000BF903B0BDE8F08F00200146F9E72DE905
:1003C000F04D81EA030404F0004B21F0004514468F
:1003D0004FF0000A23F0004150EA050220D054EA11
:1003E00001021DD0C5F30A570246C5F31303C1F33A
:1003F0001300C1F30A5640F4801543F48013A7EBB1
:100400000608101BD64608F2FD3873EB050002D330
:1004100008F1010801E092185B41B8F1000F03DA1E
:1004200000200146BDE8F08D00204FF48011064603
:1004300084460EE0171B73EB050705D3121B63EB15
:10044000050306434CEA010C49084FEA30009218B4
:100450005B4150EA0107EDD152EA030012D082EA73
:10046000040083EA0501084305D0101BAB4106D206
:100470000122002306E000224FF0004302E06FF06B
:10048000010253101AEB06004CEB085110EB0A0066
:1004900041EB0B01BDE8F04D00F087B80EB5C10F80
:1004A00080EAE0700844CA07002140F233438DE837
:1004B0000E000A460B4600F087F803B000BD0EB5EB
:1004C00040F2334102910021CDE900110A460B466A
:1004D00000F07AF803B000BD70B5C1F30A5201F024
:1004E00000450024C1F3130140F2FF3341F48011B1
:1004F0009A4201DA002070BD40F233439A42A2F2E0
:10050000334203DC524200F02EF800E090402C43CE
:10051000F1D0404270BDC1F30A5210B5C1F31301CE
:1005200040F2FF3341F480119A4201DA002010BDFD
:1005300040F233439A42A2F2334203DC524200F0CB
:1005400012F810BD904010BD202A04DB203A00FABA
:1005500002F1002070479140C2F1200320FA03F31A
:10056000194390407047202A04DB203A21FA02F018
:100570000021704721FA02F3D040C2F120029140DD
:10058000084319467047202A06DBCB17203A41FA68
:1005900002F043EAE07306E041FA02F3D040C2F110
:1005A0002002914008431946704710B5141E73F19C
:1005B000000408DA401C41F1000192185B411A4323
:1005C00001D120F0010010BD2DE9F04D92469B466F
:1005D00011B1B1FA81F202E0B0FA80F22032904615
:1005E000FFF7B2FF04460F4640EA0A0041EA0B015A
:1005F00053465A46084313D0114653EA010019D016
:10060000C8F140025046FFF7AEFF05460E46504681
:1006100059464246FFF798FF084305D0012004E001
:1006200020463946BDE8F08D0020054346EAE076D5
:100630002C4337430A986305E40AA0EB0800002224
:10064000FD0A44EA47540A3002D500200146E9E792
:10065000010510196941DDE9084500196941BDE846
:10066000F04DA2E7064C074D06E0E06840F00103BC
:1006700094E8070098471034AC42F6D3FFF780FDAA
:100680003C2400005C24000010B500EB81042367CB
:1006900022F00303184403699207D20E1F249440EA
:1006A000A34391400B43036110BD10B56FF0FF04ED
:1006B00004EB02225B1E42EA03420A43826010BD41
:1006C0000A0FC0F80021C0F8041170470029D0F8C3
:1006D000041102D041F0010101E021F00101C0F854
:1006E000041170472DE9F0479146154A4FF0FF0A73
:1006F00002EBC005002200240AFA02F02346084259
:1007000017D00020012797404FF00F0C21FA00F678
:100710003E4207D086000CFA06F809FA06F648EAC7
:1007200004043343401C0828F0D32868A04318432E
:10073000286008322D1D082ADDDDBDE8F0870000A5
:100740002020024010B5062000F074F90222012199
:100750000020FFF7C7FF0B4C01231A460221204659
:10076000FFF7A3FF0023012219462046FFF78CFF65
:1007700021032046FFF7A4FF2046BDE810400121D9
:10078000FFF7A4BF0000014010B500F057FF4FF481
:10079000E13001F03FF84FF4165001F0BDF800F0E1
:1007A00057FFFFF7CFFF01F0E3FD00F0BBFB00F0C8
:1007B000E7FB00F049F900F06DFD00F0B1FC00F03E
:1007C0002FFC642001F0F2FD00F012FE00F058FE54
:1007D00000F016FA0028FBD110BD00002DE9F04111
:1007E0003B4800F08DF83B4C00252088401C80B22F
:1007F00020806188491C6180C82811D100F0A0F8D0
:10080000258000F093FF00F045FF33484FF00C02C5
:1008100001783248012911D004F1230101F022F9B5
:100820006088322851D12E49086850B100200860F4
:100830002C4E2D4F3078012805D015E02549173171
:10084000ECE70120F3E760682849401C60600A6813
:10085000B0EB820F08D365600D6000224FF4805129
:10086000384600F0F9FA3570214E3078012816D15B
:10087000A0682049401CA0600A68B0EB820F0ED32C
:100880000D6000224FF400713846A56000F0E4FAD4
:1008900000224FF48061384600F0DEFA3570164EC3
:1008A0003078012810D1E0681449401CE0600A68E3
:1008B000B0EB820F08D30D6000224FF40061384680
:1008C000E56000F0C9FA35706580BDE8F081000090
:1008D00000600740340000201100002000000440A8
:1008E0003C046C431300002000400B401800002023
:1008F000120000201C000020140000202000002016
:10090000416821F001014160BFF34F8F704700291A
:10091000016802D041F0040101E021F0040101600E
:1009200070470029016802D041F0010101E021F087
:10093000010101607047C16070478160704700002D
:100940000648D0F8AC03002806D10549012007224B
:100950000871800701F086B87047000000006C4302
:1009600044000020FEE7000070B5124E0446706B94
:10097000850F00F023F82060012D05D00E48022DD0
:1009800002D0032D00D000206060316AC840A06012
:100990003168C1F3015120FA01F1E160B16AC1F39C
:1009A0000241072902D0C840206170BD0621B0FB7A
:1009B000F1F0F9E70080084000127A000D4B10B505
:1009C000D3F8A400002804D0D3F8FC130A4809B1D6
:1009D000196A10BD094A9169C1F3C55101B9402195
:1009E00092691B6AC2F341540122A240B0FBF2F0AB
:1009F000484310BD0000104300127A0000800840F8
:100A000000B585B06846FFF7AFFF039805B000BD9D
:100A1000F0B5074F7C6AFD6A3E6B84438D43964375
:100A200013B104430D4316437C62FD623E63F0BD87
:100A30000080084003498A6A22F4E02242EA00402A
:100A400088627047008008402DE9F0414FF400743F
:100A5000002221460220FFF745FE650000222946BC
:100A60000220FFF73FFE4FF40068002241460220BB
:100A7000FFF738FEE600002231460220FFF732FE83
:100A8000294F01222146384600F0B5F901222946B6
:100A9000384600F0B0F901224146384600F0ABF983
:100AA00001223146384600F0A6F900222146384698
:100AB00000F0B1F900222946384600F0ACF90022D6
:100AC0004146384600F0A7F900223146384600F08A
:100AD000A2F900222146384600F0BEF9002229463C
:100AE000384600F0B9F900224146384600F0B4F922
:100AF00000223146384600F0AFF90022414603207B
:100B0000FFF7F0FD094C00224146204600F073F942
:100B100000224146204600F086F941462046BDE8C5
:100B2000F041012200F06FB900400B4000600B4023
:100B300070B500244FF48055224629460420FFF763
:100B4000D1FD164E00222946304600F054F901220C
:100B50002946304600F057F9114D04E0641CE4B218
:100B6000012001F03DFCD5F8B00310B1C82CF5D33D
:100B70000DE0C82C0BD2002404E0641CE4B2012078
:100B800001F02EFCD5F8B00318B1F02C04D30120ED
:100B900070BDF02CF1D3FAE7002070BD00800B404F
:100BA0000000704370B500F0B5F800F093F8FFF75F
:100BB000BFFFCC2000F0BCF8BE2000F0B9F800F078
:100BC00079F8044600F076F8072805D9C043E143D8
:100BD000C0B2CCB2002500E0012504EB002000B239
:100BE000FFF75CFC0022054BFFF777FBFFF774FC77
:100BF00000B2002D01D1404200B270BD0000E43FC0
:100C000070B500224FF4805421461046FFF76AFD6C
:100C10000A4D01222146284600F0EDF80022214627
:100C2000284600F0F8F801222146284600F014F981
:100C300000F050F8BDE87040FFF77ABF00000B40AD
:100C400070B54FF48055002229460420FFF74AFD75
:100C5000154E01222946304600F0CDF8134C0020F5
:100C60002060022001F0BCFB012020600022294608
:100C70000420FFF737FD00222946304600F0BBF87C
:100C800001222946304600F0BEF80C2001F0A8FBF6
:100C90000748D0F8B00308B1012400E00024322056
:100CA00001F09EFB204670BD00800B403004704375
:100CB0000000704370B500250124FFF7C1FFC0019B
:100CC000641C40EA5500E4B2C5B2082CF5D92846A8
:100CD00070BD000010B54FF480540022214604205E
:100CE000FFF700FD01222146084800F084F8084C77
:100CF0000020206040F2EE2001F072FB0120206015
:100D0000BDE810400F2001F06BBB000000800B40DD
:100D10003004704310B5FFF7DDFFFFF709FFCC206B
:100D200000F006F8BDE81040442000F001B80000D3
:100D30002DE9F04105464FF480540022214604205D
:100D4000FFF7D0FC01222146104800F054F801249E
:100D50000F4E0027A04615F0010F4FEA55053760EA
:100D600006D0022001F03CFBC6F800803C2005E0E4
:100D70003C2001F035FBC6F80080022001F030FB7A
:100D8000641CE4B2082CE6D9BDE8F08100800B4079
:100D90003004704370B512481349124C007809783A
:100DA000251F01EB400111480078687001EB8000BD
:100DB000A071FFF7F7FE0E49088000F5FA70607128
:100DC000000A207100F00AF9000C207000F006F90A
:100DD000000A6070FF20A070E0700020287070BDD5
:100DE0001200002004000020140000201300002046
:100DF0008A0000207047002A026801D00A4300E000
:100E00008A4302607047002A426801D00A4300E02A
:100E10008A4342607047002A026901D00A4300E019
:100E20008A430261704742B1012A09D082688A432D
:100E30008260C2688A43C260704782680A43F7E7EB
:100E4000C2680A43C26082688A4382607047C06990
:100E5000084000D0012070470AB1416270478162AA
:100E600070470029016902D041F0010101E021F041
:100E7000010101617047F0B50B78076D00EB830449
:100E800004F1400204F1900504F1A0065B00012486
:100E90009C40E44327400765476D27404765446D04
:100EA0004F799F403C434465146840F20717BC43A8
:100EB000146014684F883C431460CA882A600A8909
:100EC0003260026D097999400A430265F0BD002144
:100ED0000170418001714171C18001817047C0F88A
:100EE000881070470A88C0F888204A88C0F8842093
:100EF000026822F440320260026822F080720260CE
:100F000002684B681A4302600989816770470021B3
:100F10004FF6FF724160028041804FF48071018181
:100F20007047000010B5002201210220FFF7DAFB14
:100F3000124C002201212046FFF75DFF0022012113
:100F40002046FFF770FF012211462046FFF75BFFA6
:100F5000022100220846FFF7C5FB0122022120469C
:100F6000FFF749FF002202212046FFF754FF2046E9
:100F70000122BDE810400221FFF76EBF00400B4088
:100F800010B5002204210220FFF7ACFB124C002216
:100F900004212046FFF72FFF002204212046FFF7FF
:100FA00042FF012204212046FFF72DFF00220821E5
:100FB0000220FFF797FB012208212046FFF71BFFC5
:100FC000002208212046FFF726FF20460122BDE827
:100FD00010400821FFF740BF00400B4070B50D4A9C
:100FE000002414600C4B2046D3F880130029FBD159
:100FF0000125156040001460D3F8806306B1401CE1
:10100000491CC9B21829F4D3156080F4000014609B
:1010100070BD00000404684300006843FEE7000060
:1010200070B54FF48054002221460120FFF75AFB8F
:10103000134D002221462846FFF7DDFE00222146FF
:101040002846FFF7F0FE002240210320FFF74AFB6D
:101050000C4E002240213046FFF7CDFE00224021F9
:101060003046FFF7E0FE012221462846FFF7CBFE7F
:101070003046BDE8704001224021FFF7C4BE0000A9
:1010800000200B4000600B4010B50E4C4021204664
:10109000FFF7DDFE002814D11E2001F087F9402162
:1010A0002046FFF7D4FE00280BD1074C2068401ED5
:1010B0002060322001F07AF92068012801DA14203A
:1010C000206010BD00600B40CC00002070B5114DB9
:1010D0004FF4805421462846FFF7B9FE002818D166
:1010E0001E2001F063F921462846FFF7B0FE0028D4
:1010F0000FD10949C879401CC0B2C871342801D940
:101100003120C871BDE870400B220349034800F04C
:10111000A9BC70BD00200B40B100002000000440BD
:101120002DE9F0414FF40044002221460320FFF74F
:10113000D9FA6510002229460320FFF7D3FAA6103A
:10114000002231460320FFF7CDFAE710002239468E
:101150000320FFF7C7FADFF85880012221464046F6
:10116000FFF749FE012229464046FFF744FE0122CF
:1011700031464046FFF73FFE012239464046FFF721
:101180003AFE012221464046FFF766FE012229462B
:101190004046FFF761FE012231464046FFF75CFE04
:1011A00039464046BDE8F0410122FFF755BE000038
:1011B00000600B400029016F02D041F0100101E0F6
:1011C00021F01001016770470029016902D041F048
:1011D000010101E021F0010101617047F0B50B78D8
:1011E000076D00EB830404F1400204F1900504F163
:1011F000A0065B0003249C40E44327400765476D3D
:1012000091F806C091F807E027404CEA4E0C0CFA22
:1012100003FC4CEA070CC0F854C0C76E91F809C033
:1012200027400C7A44EA4C049C403C43C466146852
:1012300040F20717BC43146014684F883C431460A5
:101240004A892A608A8932600A79497942EA4101E9
:10125000026D994011430165F0BDC0F888107047D8
:101260000A88C0F888204A88C0F88420026822F4DE
:1012700040320260026822F08072026002688B686D
:101280001A4302600A79C0F88C2089898167704707
:10129000FEE700002DE9F0414FF480740022214662
:1012A0000120FFF71FFA6500002229460120FFF701
:1012B00019FAA600002231460120FFF713FAE700D1
:1012C000002239460120FFF70DFADFF88080012265
:1012D00021464046FFF78FFD012229464046FFF791
:1012E0008AFD012231464046FFF785FD012239463D
:1012F0004046FFF780FD002221464046FFF78BFD68
:10130000002229464046FFF786FD0022314640462E
:10131000FFF781FD002239464046FFF77CFD0022A1
:1013200021464046FFF798FD002229464046FFF738
:1013300093FD002231464046FFF78EFD3946404678
:10134000BDE8F0410022FFF787BD000000200B4000
:101350002DE9F05FDFF8448089468346002608F1D6
:1013600008074FF47A7A11E000250024B9F1010F43
:1013700010D0385D00F002F9504601F031F8641CDD
:10138000082CF3DB6D1CAA2DEFDB761C5E45EBDB36
:10139000BDE8F09F18F80400ECE70000BC00002056
:1013A00010B50C4C00224FF480712046FFF754FD1D
:1013B000002261152046FFF74FFD0022211520462F
:1013C000FFF74AFD2046BDE8104000224FF40061BF
:1013D000FFF742BD00200B40704700F01F020121C3
:1013E00091404009800000F1E020C0F800117047F2
:1013F00070B5042288B008211046FFF773F91E4E1D
:1014000000241E4D3088ADF810004FF48070ADF808
:101410001C00ADF812408DF81440069404A928462B
:10142000FFF71EFF01218DF804108DF805408DF89F
:10143000001007208DF806408DF80840ADF8020036
:101440008DF807408DF8091031683220491C41435E
:101450006420B1FBF0F0ADF80A0069462846FFF7BA
:10146000BDFE01212846FFF7A5FE01212846FFF712
:10147000ABFE08B070BD00003000002000D002407C
:1014800070B586B0042240210020FFF72BF903A895
:10149000FFF73DFD174D002404942888ADF80C009B
:1014A000154EADF80E40ADF8144003A93046FFF7D5
:1014B00019FD6846FFF70BFD02208DF8000006209D
:1014C000ADF8020001208DF804008DF80540296870
:1014D000491C01EB41106421B0FBF1F0ADF80600AE
:1014E00069463046FFF7C7FC01213046FFF7B9FCDB
:1014F00006B070BD3000002000E00640084910B57D
:10150000086840F6B8325043486081B20548FFF79A
:10151000A4FEBDE810404CF250310348FFF7DFBC99
:10152000CC00002000D0024000E0064070470000E0
:10153000F0B50A4FD7F80441D7F80851D7F80C6135
:1015400084438D43964313B104430D431643C7F8B8
:101550000441C7F80851C7F80C61F0BD008008408D
:1015600070474FF0E0210428086903D020F0040000
:101570000861704740F00400FAE7000070B50446C7
:10158000154D00074FF4807101D5002200E00122C3
:101590002846FFF761FC60074FF4007101D5002277
:1015A00000E001222846FFF757FCA0074FF48061B6
:1015B00001D5002200E001222846FFF74DFCE0079C
:1015C0004FF4006101D0002200E001222846BDE86E
:1015D0007040FFF741BC000000200B40144801217F
:1015E000C0F80013134AC2F8A810D2F80831002B33
:1015F000FBD0002313624FF010638361C2F8A41084
:10160000D2F80431002BFBD00B4AD2F8003223F081
:101610000703DB1CC2F800320162426822F00302B9
:10162000521C4260426BB1EB927FFBD170470000CD
:101630000080084000001043000008404FF4F810FC
:101640004FF48641014A0123FFF7E2B94201030149
:1016500010B52920FFF7C1FE0C4800684FF47A71DD
:10166000B0FBF1F00A4C00EB80012046FFF763F974
:1016700000212046FFF761F901212046FFF751F9CB
:101680002046BDE810400121FFF741B96400002069
:101690000060074070B5FFF7A1FC1D4D1D49286093
:1016A000084441F26801B0FBF1F420466C60FEF79B
:1016B00006FF194A194BFEF70AFE194A194BFEF7A5
:1016C0007EFEFEF728FFA8600CB90020A860052167
:1016D000B0FBF1F2B0FBF1F000EB80004000C5E997
:1016E0000320322000F062FEE8680A22B0FBF2F02C
:1016F000074930301431222248728A720E220A4879
:1017000000F0B0F9BDE87040322000F04FBE00009C
:10171000680000201C6264FFC3F5285C8FC205408E
:1017200054E3A59BC4A002400000044070B5FFF73D
:1017300039FA81B20A23B1FBF3F0B0FBF3F2164C95
:10174000B0FBF3F52180608003FB1500B1FBF3F5DE
:10175000A28003FB1511E080218104F10A013032DF
:101760004A7230300D4D88720F22284600F07AF907
:10177000142000F01BFE207A04F119013030487269
:1017800022228A720E22284600F06CF9BDE87040D1
:10179000142000F00BBE00008A000020000004406E
:1017A0002DE9F0414FF0804000248168254649072B
:1017B0002AD500F048F9164B14491A788854521C5F
:1017C000D0B20022187083281DD20E78AA2E1AD10A
:1017D000032819D94E78552E15D18E78F61C8642DD
:1017E00012D8861E04E00F5D641C3D44EDB2E4B2E5
:1017F000B442F8DD084410F8010CA84202D10120DF
:10180000587000E01A701A70BDE8F081D400002012
:10181000100000203EB5044606220C210020FEF7F1
:1018200061FF0120ADF8040000200094ADF808002D
:101830000121ADF80600ADF80A008C07204600F043
:1018400028F90121204600F001F9022269462046CC
:1018500000F0B2F82F20FFF7C0FD3EBD2DE9F041AA
:101860002948816849074CD5284C01278046E771F3
:1018700000F0E9F8C2B226480025264EA27104F114
:101880001401A62A02D0A52A1ED039E0E279012A45
:1018900036D105603620C8711C490B2214314046F0
:1018A00000F0E0F83078022802D0012803D008E0E8
:1018B0000021012001E000210220FFF749FDFFF790
:1018C0006FFD042030701BE0E279012A18D1076017
:1018D0003420C8710D490B221431404600F0C2F883
:1018E0003078042802D0022803D008E00121022029
:1018F00001E001210846FFF72BFDFFF751FD37708E
:10190000E571BDE8F08100000000044010000020F7
:1019100034046C43020000203EB504460622302108
:101920000020FEF7DFFE0120ADF804000020009447
:10193000ADF808000C4CADF80600ADF80A00694699
:10194000204600F017F80121204600F0A2F80121FE
:10195000204600F07BF802226946204600F02CF871
:101960003020FFF73AFD3EBD00000440C2680A4344
:10197000C260704770B505460C46C88889882A69D8
:101980000843218922F01F02114308432861686A35
:10199000618920F0030008436862FFF731F821688D
:1019A000B0FBF1F0A86370BD002A426801D00A4381
:1019B00000E08A434260704770B515460446FFF761
:1019C000D9FF06212046FFF7D1FF012D05D0A8261B
:1019D000022D0BD0032D10D025E00021204600F071
:1019E00052F80121204600F054F81CE00021204666
:1019F00000F023F8012211460DE00021204600F0FE
:101A000042F80121204600F044F80021204600F071
:101A100014F801220F212046FFF7C6FF266201219C
:101A2000204600F013F8B4F1804F04D03120BDE817
:101A30007040FFF7D2BC2F20F9E7C26822F0C00245
:101A40000A43C2607047006880B270470029C168CD
:101A500002D041F4007101E021F40071C1607047CF
:101A6000016070472DE9F04115460E4607460024F7
:101A700005E0315D3846FFF7F3FF641CA4B2AC42C9
:101A8000F7D3BDE8F081C26822F030020A43C26099
:101A900070470029C16802D041F4807101E021F44F
:101AA0008071C16070472DE9F041044600F0D4F91F
:101AB0000546800706D5E16C09B1206D88470220F4
:101AC00000F0CAF8E8060FD5102000F0C5F894F829
:101AD0003200022808D300F0C7F994F8320084F8E5
:101AE0003300032084F8320068074FF0000620D549
:101AF000701ED4F8847044F8200F26746674207D1C
:101B000020F0020020750420A074A66100F0AAF85D
:101B100000F0B2F90020616E00F002F9386800F0C0
:101B200083F9616A203C09B1A06C8847042000F069
:101B300093F8280708D500F09FF994F8330084F84B
:101B40003200082000F088F8E8054FF480777AD555
:101B5000002000F0D5F80546800522D5204600F08B
:101B600093F984F824602662207810F0600002D097
:101B7000202808D103E0204600F025FB03E0216E79
:101B8000204601B1884794F82400012817D0022884
:101B90001ED0002000F014F94FF40071002000F076
:101BA00077F8A8072ED50221002000F071F8206AEE
:101BB000401C27D094F8240002280FD022E0E088AF
:101BC000216A814200DD2062204600F0C0FAE3E78E
:101BD00000221146104600F003F9DDE74022002004
:101BE000E16900F0CDF8E1690144E161216A081A78
:101BF000206207D1012084F82400A16A11B1E06AB3
:101C00008847A662E80606D5204600F0A0FA102113
:101C1000002000F03DF8384600F01EF813E028469A
:101C200000F06EF810F0120F0DD01221284600F0CF
:101C30002FF807FA05F000F00FF804EB8500416E6D
:101C400009B12846884700F007F900F0F5F8054685
:101C5000401CE4D1BDE8F081014988607047000074
:101C600000800A400021202001230A46FFF760BCC3
:101C700010B500F065FB016801F00901016010BDBD
:101C800010B500F05DFB016801F02401016010BD9A
:101C900010B50C4600F054FB846010BD10B500F088
:101CA0004FFB00690249C0F30900084410BD000061
:101CB00000A00A4070B5054600F042FB04462846E5
:101CC00000F00AF82169C1F30901084401490844F8
:101CD00070BD000000A00A4010B500F031FB0069A3
:101CE000C0F3892010BD10B500F02AFB016900681F
:101CF000C90002D5C0F3800010BDC0F3401010BD74
:101D000010B500F01DFB41688068084010BD10B59B
:101D10000C4600F015FBC068E040C0F3080010BDA1
:101D200070B50C46054600F00BFB04EBC5014A6894
:101D30000261896841604FF0FF3181602846BDE84B
:101D4000704000F035B82DE9F04116460F46050009
:101D500011D00021FFF7DBFF0446B04208D8284627
:101D60005DB1FFF79BFFE11C8A08394600F0DFFAFE
:101D70002046BDE8F0811021ECE7FFF79BFFF2E77A
:101D80002DE9F04115460E46074600F0D9FA044603
:101D900000203DB12A4631463846FFF7D4FF08B946
:101DA000002D03D1216801F010012160BDE8F08110
:101DB00010B500F0C5FA016801F01901016010BD0D
:101DC00010B500F0BDFA0421016010BD10B500F09F
:101DD000B7FA40218160026824219143016010BD5F
:101DE0002DE9F041144688460746FFF775FF064681
:101DF000384600F0A5FA054600213846FFF787FF70
:101E0000B44200D810B10020BDE8F0813846FFF799
:101E100045FF0146E01C8208404600F088FAEC606D
:101E2000022028602046EFE702494A6802434A60E0
:101E30007047000000800A400346072101F10802B4
:101E400023FA02F0C20701D048B27047491E0029A8
:101E5000F4DC4FF0FF30704702484168806808406A
:101E60007047000000800A400248016841F00C0100
:101E70000160704700800A400248016801F48061F7
:101E80000160704700800A4002490A6802604968A0
:101E90004160704700A00A4003490A6842F480721A
:101EA0000A6008617047000000800A400148FFF79F
:101EB000FABD0000DC0300202DE9F05F9C4C607847
:101EC000012873D19B4A002610461179C078012958
:101ED00002D0FF2902D027E110B125E1FF28FAD175
:101EE00095490868B0B100200860914F51790125EB
:101EF000A8071437DFF844A2DFF8449290464FF069
:101F0000040B0929E7D2DFE801F01F072C52881FD4
:101F1000B1D1F1000120E7E783228649FFF7A2FD56
:101F200032208349F8710B2214318648FFF79AFD5D
:101F300098F8080042464FF48051012805D000224D
:101F40005046FEF789FFE670EEE0907998F807209A
:101F500002EB0020A06001225046FEF77DFFE570F5
:101F6000E2E083227349FFF77DFD31207049F8716B
:101F70000B2214317348FFF775FD98F808004246AC
:101F80004FF40061012805D000225046FEF764FF9F
:101F90002671C9E0907998F8072002EB00202061B3
:101FA00001225046FEF758FF2571BDE0BDE08322B7
:101FB0006049FFF757FD3320F8715F4F083F3E60DF
:101FC0005B490B2214315F48FFF74CFD98F808007D
:101FD00042464FF400714FF4806801280CD03D60F8
:101FE000002255465046FEF737FF0022414628465C
:101FF000FEF732FFA67097E09079D279574602EB50
:102000000020E06001225046FEF726FF01224146F3
:102010003846FEF721FFA57086E04B4B454A99F8FC
:102020000010D9718332AA211170552151700C21F1
:102030009170D670157182F805B0002157185D5C5B
:10204000491CC9B2BD710829F8D300216579535CD8
:10205000491C2B44C9B263710E29F7D335499373D8
:1020600083228331FFF7FEFC66715DE083223149F4
:10207000FFF7F8FC36202E49F8710B221431314855
:10208000FFF7F0FC99F800004D46022802D0012825
:1020900003D008E00021012001E000210220FFF729
:1020A00057F9FFF77DF985F800B03DE0832221491B
:1020B000FFF7D8FC35201E49F8710B221431214856
:1020C000FFF7D0FC99F800004D46042802D0012803
:1020D00002D007E0012100E000210120FFF738F9DC
:1020E000FFF75EF9022028701EE0FFE73421F97146
:1020F00083221049FFF7B6FC0D490B221431114819
:10210000FFF7B0FC99F800004F46042802D00228DF
:1021100003D008E00121022001E001210846FFF779
:1021200017F9FFF73DF93D706670BDE8F09F0000BC
:1021300010000020D400002038046C4300400B4005
:10214000020000200000044004000020FEE770B5FB
:1021500004460020FFF7C0FD0546206A411C16D04A
:1021600094F82410012912D1A84202D3401B206206
:1021700005E0054600202062022084F824002A465B
:102180000020E169FFF72CFEE0692844E06170BDA2
:1021900010B504460020607649B1012909D0022912
:1021A00010D1207900F00F00FFF79DFD01E094F8B9
:1021B0003400207604F11800E06102202062012042
:1021C00084F8240010BD70B5044600880125B0F5E0
:1021D000A06F4DD020DCB0F5807F42D00BDC802892
:1021E0003BD081283BD0822864D102212046BDE823
:1021F0007040FFF7CDBFB0F5817F34D0B0F5407FA0
:1022000033D0A0F54070023854D10122022120467B
:10221000BDE8704000F065B8B0F5106F4DD00FDC30
:10222000B0F5D06F2BD0A0F5C060813843D0A0F5B9
:102230008070FF383ED104F13000C4E9070537E073
:10224000A0F5206081384AD0802833D1A16D0029C3
:1022500030D02046BDE8704008470021C6E7012184
:10226000C4E7002202E00022D0E701220021CEE7ED
:10227000A078FFF711FE84F8245005202CE0E078C8
:1022800001280FD002280FD0032813D1A07861694C
:1022900081420FD9216951F8200000280AD0E0615D
:1022A000007804E0A068FAE7E068E0614088206216
:1022B00084F8245070BD616DC9E7A07884F83000BF
:1022C00084F82450012568B2D4F88410FFF728FD63
:1022D0006D1C082DF7D3062084F8320070BDE16D27
:1022E000B5E770B50446012661B1022909D120790C
:1022F00010F00F0503D082B12846FFF767FD84F880
:10230000246070BDA0780128FBD114F8340F62F36B
:10231000410004F81009267070BDA06B0028EED1B2
:102320002846FFF7ADFC2846FFF7A2FCE7E7521E60
:1023300004D450F8223041F82230F8E7704700000A
:10234000024900EB800001EB8000704714800A40D6
:1023500002E008C8121F08C1002AFAD1704770476E
:10236000002001E001C1121F002AFBD170470000CC
:1023700010B56FF00400FFF7F4F809480068094948
:10238000B0FBF1F00849C0B200EB40020870C2EBAC
:10239000C0104FF6FF7202EAC000488010BD000076
:1023A0006400002000127A000C0000200B494988CC
:1023B00048434FF0E021486100238B61086940F0F9
:1023C000010008610869C20701D0C003FAD5086995
:1023D00020F0010008618B61704700000C000020B4
:1023E0000B49097848434FF0E021486100238B6195
:1023F000086940F0010008610869C20701D0C00304
:10240000FAD5086920F0010008618B61704700006F
:102410000C000020FEF7B8F907480421017055218F
:102420004170FFF749FDFEF72FFEFEF74FFEFFF765
:1024300065F8FEF7AFFCF4E7020000205C24000022
:1024400000000020D40000005023000030250000D0
:10245000D4000020DC050000602300000000040020
:10246000000000000000000000000000000000006C
:102470000000030000000000000000000000000059
:10248000647A2E76616C3D31FFFFFF00DFAB000008
:10249000000000000000000000000000000000003C
:1024A000AA550400010B0F70302E7069633D353062
:1024B000FFFFFF70302E7069633D3439FFFFFF006E
:1024C00000A24A040000000000000000000000001C
:1024D00000000000000000007432302E7478743D5B
:1024E000223122FFFFFF000000000000000000007A
:1024F0007431362E7478743D22313122FFFFFF741F
:1025000031372E7478743D223122FFFFFF7A742E0A
:1025100076616C3D30FFFFFF080C040602030109E1
:102520000901030206040C0814000000000000006A
:0400000500000155A1
:00000001FF
