:020000040000FA
:10000000F004002055010000F1030000ED030000A2
:10001000EF030000BB020000D10800000000000058
:100020000000000000000000000000004504000087
:10003000F10200000000000011040000470400006D
:100040006F0100006F0100006F0100006F010000F0
:100050006F0100006F0100006F0100006F010000E0
:100060006F0100006F0100006F0100006F010000D0
:100070006F0100006F0100006F0100006F010000C0
:100080006F0100006F0100006F0100006F010000B0
:100090006F0100006F0100006F0100006F010000A0
:1000A0006F0100006F010000000000006F01000000
:1000B0006F0100006F0100006F0100006F01000080
:1000C0006F0100006F0100006F0100006F01000070
:1000D0006F010000000000000000000000000000B0
:1000E00000000000110200006F0100006F0100001D
:1000F0006F0100006F0100006F0100006F01000040
:100100006F0100006F0100006F0100006F0100002F
:100110006F010000C5080000000000006F01000032
:100120006F0100006F0100006F0100006F0100000F
:100130006F0100006F0100006F010000000000006F
:1001400000000000000000000000000000000000AF
:100150006F0100000648804706480047FEE7FEE7BB
:10016000FEE7FEE7FEE7FEE7FEE7FEE7FEE7FEE767
:100170004904000079010000DFF80CD000F006F817
:1001800000480047ED0B0000F0040020064C074D2E
:1001900006E0E06840F0010394E807009847103457
:1001A000AC42F6D3FFF7ECFF400C0000600C0000FF
:1001B0002DE9F0479146154A4FF0FF0A02EBC005C2
:1001C000002200240AFA02F02346084217D0002039
:1001D000012797404FF00F0C21FA00F63E4207D05E
:1001E00086000CFA06F809FA06F648EA04043343D6
:1001F000401C0828F0D32868A04318432860083220
:100200002D1D082ADDDDBDE8F0870000202002401A
:1002100010B5124800F028F8114C6088401C60802E
:10022000628810484FF40071642A05D201222280AE
:10023000BDE8104000F08AB86288642A08D9628854
:10024000C82A05D2002200F081F80220208010BDCB
:100250006088C828FBD90020608010BD006007407E
:100260000400002000400B40416821F00101416082
:10027000BFF34F8F70470029016802D041F004019D
:1002800001E021F00401016070470029016802D0FB
:1002900041F0010101E021F00101016070470029F6
:1002A000016802D041F0020101E021F00201016089
:1002B0007047C160704781607047FEE74FF480204F
:1002C00082124FF48A410123AFF30080F0B5074F4B
:1002D0007C6AFD6A3E6B84438D43964313B10443AD
:1002E0000D4316437C62FD623E63F0BD0080084012
:1002F00070470000044A00B5106001E000F0D4F837
:1003000010680028FAD100BD00000020816270470B
:1003100070B54FF42064002221460220FFF748FF09
:10032000054D01222146284600F008F821462846BE
:10033000BDE87040FFF7EABF00400B40002A0268AA
:1003400001D00A4300E08A43026070470AB141626B
:100350007047816270470029016902D041F00101B4
:1003600001E021F0010101617047F0B50B78076DE4
:1003700000EB830404F1400204F1900504F1A006AF
:100380005B0001249C40E44327400765476D2740FC
:100390004765446D4F799F403C434465146840F283
:1003A0000717BC43146014684F883C431460CA8824
:1003B0002A600A893260026D097999400A43026510
:1003C000F0BD0A88C0F888204A88C0F884200268F6
:1003D00022F440320260026822F0807202600268F9
:1003E0004B681A430260098981677047FEE7FEE7A0
:1003F00070470021084600F001B80000024A114091
:10040000014302480160704780FFFF1F08ED00E0D4
:1004100070470000F0B50A4FD7F80441D7F80851EB
:10042000D7F80C6184438D43964313B104430D43C5
:100430001643C7F80441C7F80851C7F80C61F0BD6E
:10044000008008407047704714480121C0F800132D
:10045000134AC2F8A810D2F80831002BFBD00023B1
:1004600013624FF010638361C2F8A410D2F8043114
:10047000002BFBD00B4AD2F8003223F00703DB1C21
:10048000C2F800320162426822F00302521C42604C
:10049000426BB1EB927FFBD17047000000800840B7
:1004A000000010430000084003480168002902D002
:1004B0000168491E01607047000000202DE9F041ED
:1004C000044600F0D5F90546800706D5E16C09B170
:1004D000206D8847022000F0CBF8E8060FD51020E9
:1004E00000F0C6F894F83200022808D300F0C8F9EA
:1004F00094F8320084F83300032084F8320068074F
:100500004FF0000620D5701ED4F8847044F8200FF8
:1005100026746674207D20F0020020750420A074EB
:10052000A66100F0ABF800F0B3F90020616E00F0B6
:1005300003F9386800F084F9616A203C09B1A06CC5
:100540008847042000F094F8280708D500F0A0F9A7
:1005500094F8330084F83200082000F089F8E805A8
:100560004FF480777AD5002000F0D6F80546800554
:1005700022D5204600F094F984F824602662207881
:1005800010F0600002D0202808D103E0204600F0DF
:1005900059FA03E0216E204601B1884794F82400FF
:1005A000012817D002281ED0002000F015F94FF4C2
:1005B0000071002000F078F8A8072ED50221002055
:1005C00000F072F8206A401C27D094F8240002281A
:1005D0000FD022E0E088216A814200DD20622046BF
:1005E00000F0F4F9E3E700221146104600F004F9A8
:1005F000DDE740220020E16900F0CEF8E169014426
:10060000E161216A081A206207D1012084F82400E0
:10061000A16A11B1E06A8847A662E80606D52046BD
:1006200000F0D4F91021002000F03EF8384600F028
:100630001FF813E0284600F06FF810F0120F0DD0ED
:100640001221284600F030F807FA05F000F010F803
:1006500004EB8500416E09B12846884700F008F98F
:1006600000F0F6F80546401CE4D1BDE8F08100003A
:10067000014988607047000000800A400021202066
:1006800001230A46FFF7C6BE10B500F097FA0168CD
:1006900001F00901016010BD10B500F08FFA01688A
:1006A00001F02401016010BD10B50C4600F086FA7F
:1006B000846010BD10B500F081FA00690249C0F3F2
:1006C0000900084410BD000000A00A4070B50546AE
:1006D00000F074FA0446284600F00AF82169C1F3D4
:1006E000090108440149084470BD000000A00A4007
:1006F00010B500F063FA0069C0F3892010BD10B591
:1007000000F05CFA01690068C90002D5C0F38000FE
:1007100010BDC0F3401010BD10B500F04FFA416895
:100720008068084010BD10B50C4600F047FAC0685C
:10073000E040C0F3080010BD70B50C46054600F05F
:100740003DFA04EBC5014A680261896841604FF0D7
:10075000FF3181602846BDE8704000F035B82DE9D2
:10076000F04116460F46050011D00021FFF7DBFFD0
:100770000446B04208D828465DB1FFF79BFFE11C54
:100780008A08394600F012FA2046BDE8F0811021AF
:10079000ECE7FFF79BFFF2E72DE9F04115460E4627
:1007A000074600F00BFA044600203DB12A463146C8
:1007B0003846FFF7D4FF08B9002D03D1216801F0B6
:1007C00010012160BDE8F08110B500F0F7F9016873
:1007D00001F01901016010BD10B500F0EFF904211E
:1007E000016010BD10B500F0E9F940218160026898
:1007F00024219143016010BD2DE9F0411446884643
:100800000746FFF775FF0646384600F0D7F905465C
:1008100000213846FFF787FFB44200D810B100200E
:10082000BDE8F0813846FFF745FF0146E01C82082D
:10083000404600F0BBF9EC60022028602046EFE75C
:1008400002494A6802434A607047000000800A403B
:100850000346072101F1080223FA02F0C20701D082
:1008600048B27047491E0029F4DC4FF0FF30704752
:1008700002484168806808407047000000800A40D4
:100880000248016841F00C010160704700800A4095
:100890000248016801F480610160704700800A40ED
:1008A00002490A68026049684160704700A00A4036
:1008B00003490A6842F480720A60086170470000C8
:1008C00000800A400148FFF7F9BD00000C0200203B
:1008D000FEE7000010B500204FF4803201230146EE
:1008E000FFF7F4FC0D4C0C492046FFF7E2FC002119
:1008F0002046FFF7E0FC01212046FFF7C6FC00215F
:100900002046FFF7CCFC01212046FFF7B4FC044948
:100910006015C1F8000110BD407E05000060074071
:1009200004E000E004490A6D22F040020A650A6D05
:1009300042EA80100865704700E0064070B586B056
:10094000042280210020FFF733FC1A4C47214FF48A
:100950007A702180208100256581ADF80C004FF46C
:100960008070154EADF80E10ADF81400049503A973
:100970003046FFF726FD114821880068491CB0FB6E
:10098000F1F0606003208DF800006089ADF806008A
:1009900001208DF804000620ADF802008DF8055006
:1009A00069463046FFF7E1FC00213046FFF7D3FCF3
:1009B00006B070BDE002002000E006400800002004
:1009C00001460148FFF7C7BC00E0064070B5044689
:1009D0000020FFF78DFE0546206A411C16D094F8D2
:1009E0002410012912D1A84202D3401B206205E045
:1009F000054600202062022084F824002A460020B8
:100A0000E169FFF7F9FEE0692844E06170BD10B5C7
:100A100004460020607649B1012909D0022910D18D
:100A2000207900F00F00FFF76AFE01E094F834002F
:100A3000207604F11800E06102202062012084F891
:100A4000240010BD70B5044600880125B0F5A06FE4
:100A50004DD020DCB0F5807F42D00BDC80283BD02D
:100A600081283BD0822864D102212046BDE8704015
:100A7000FFF7CDBFB0F5817F34D0B0F5407F33D0E4
:100A8000A0F54070023854D1012202212046BDE871
:100A9000704000F065B8B0F5106F4DD00FDCB0F5C8
:100AA000D06F2BD0A0F5C060813843D0A0F5807006
:100AB000FF383ED104F13000C4E9070537E0A0F566
:100AC000206081384AD0802833D1A16D002930D0F0
:100AD0002046BDE8704008470021C6E70121C4E771
:100AE000002202E00022D0E701220021CEE7A07818
:100AF000FFF7DEFE84F8245005202CE0E078012882
:100B00000FD002280FD0032813D1A0786169814249
:100B10000FD9216951F8200000280AD0E06100783F
:100B200004E0A068FAE7E068E0614088206284F8A9
:100B3000245070BD616DC9E7A07884F8300084F856
:100B40002450012568B2D4F88410FFF7F5FD6D1C20
:100B5000082DF7D3062084F8320070BDE16DB5E7AB
:100B600070B50446012661B1022909D1207910F03F
:100B70000F0503D082B12846FFF734FE84F82460C5
:100B800070BDA0780128FBD114F8340F62F3410046
:100B900004F81009267070BDA06B0028EED128461D
:100BA000FFF77AFD2846FFF76FFDE7E7521E04D4F2
:100BB00050F8223041F82230F8E77047024900EB44
:100BC000800001EB8000704714800A4002E008C8F2
:100BD000121F08C1002AFAD170477047002001E0B7
:100BE00001C1121F002AFBD170470000FFF701FC72
:100BF000FFF764FBFFF78CFBFFF76CFEFFF79EFE31
:100C00000120FFF7DDFE0020FFF78CFE0A4C0B4DA4
:100C10004FF40066002231462046FFF797FB284636
:100C2000FFF768FB012231462046FFF78FFB28467D
:100C3000FFF760FBEEE7000000400B4040420F0072
:100C4000600C0000000000200C000000CC0B000035
:100C50006C0C00000C000020E4040000DC0B000021
:0C0C6000000000000000000000A24A0498
:0400000500000155A1
:00000001FF
